{
  "contractName": "ProjectFactory",
  "abi": [
    {
      "inputs": [],
      "stateMutability": "nonpayable",
      "type": "constructor"
    },
    {
      "anonymous": false,
      "inputs": [
        {
          "indexed": false,
          "internalType": "uint256",
          "name": "index",
          "type": "uint256"
        },
        {
          "indexed": false,
          "internalType": "address",
          "name": "contractAddress",
          "type": "address"
        },
        {
          "indexed": false,
          "internalType": "string",
          "name": "name",
          "type": "string"
        },
        {
          "indexed": false,
          "internalType": "address",
          "name": "contractor",
          "type": "address"
        },
        {
          "indexed": false,
          "internalType": "address",
          "name": "inspector",
          "type": "address"
        }
      ],
      "name": "ProjectCreated",
      "type": "event"
    },
    {
      "inputs": [],
      "name": "authority",
      "outputs": [
        {
          "internalType": "address",
          "name": "",
          "type": "address"
        }
      ],
      "stateMutability": "view",
      "type": "function",
      "constant": true
    },
    {
      "inputs": [
        {
          "internalType": "uint256",
          "name": "",
          "type": "uint256"
        }
      ],
      "name": "projects",
      "outputs": [
        {
          "internalType": "address",
          "name": "contractAddress",
          "type": "address"
        },
        {
          "internalType": "string",
          "name": "name",
          "type": "string"
        },
        {
          "internalType": "address",
          "name": "contractor",
          "type": "address"
        },
        {
          "internalType": "address",
          "name": "inspector",
          "type": "address"
        }
      ],
      "stateMutability": "view",
      "type": "function",
      "constant": true
    },
    {
      "inputs": [
        {
          "internalType": "string",
          "name": "_name",
          "type": "string"
        },
        {
          "internalType": "address payable",
          "name": "_contractor",
          "type": "address"
        },
        {
          "internalType": "address",
          "name": "_inspector",
          "type": "address"
        }
      ],
      "name": "createProject",
      "outputs": [],
      "stateMutability": "nonpayable",
      "type": "function"
    },
    {
      "inputs": [],
      "name": "getProjectCount",
      "outputs": [
        {
          "internalType": "uint256",
          "name": "",
          "type": "uint256"
        }
      ],
      "stateMutability": "view",
      "type": "function",
      "constant": true
    },
    {
      "inputs": [
        {
          "internalType": "uint256",
          "name": "_index",
          "type": "uint256"
        }
      ],
      "name": "getProject",
      "outputs": [
        {
          "internalType": "address",
          "name": "contractAddress",
          "type": "address"
        },
        {
          "internalType": "string",
          "name": "name",
          "type": "string"
        },
        {
          "internalType": "address",
          "name": "contractor",
          "type": "address"
        },
        {
          "internalType": "address",
          "name": "inspector",
          "type": "address"
        }
      ],
      "stateMutability": "view",
      "type": "function",
      "constant": true
    }
  ],
  "bytecode": "0x608060405234801561001057600080fd5b50336000806101000a81548173ffffffffffffffffffffffffffffffffffffffff021916908373ffffffffffffffffffffffffffffffffffffffff160217905550614203806100606000396000f3fe60806040523480156200001157600080fd5b50600436106200005e5760003560e01c8063107046bd14620000635780633bcff3b0146200009c57806388ff2dcc14620000be578063bf7e214f14620000de578063f0f3f2c81462000100575b600080fd5b6200008160048036038101906200007b9190620008e3565b62000139565b60405162000093949392919062000a72565b60405180910390f35b620000a66200026a565b604051620000b5919062000b0a565b60405180910390f35b620000dc6004803603810190620000d6919062000874565b62000277565b005b620000e862000526565b604051620000f7919062000a18565b60405180910390f35b6200011e6004803603810190620001189190620008e3565b6200054a565b60405162000130949392919062000a72565b60405180910390f35b600181815481106200014a57600080fd5b90600052602060002090600402016000915090508060000160009054906101000a900473ffffffffffffffffffffffffffffffffffffffff1690806001018054620001959062000d1c565b80601f0160208091040260200160405190810160405280929190818152602001828054620001c39062000d1c565b8015620002145780601f10620001e85761010080835404028352916020019162000214565b820191906000526020600020905b815481529060010190602001808311620001f657829003601f168201915b5050505050908060020160009054906101000a900473ffffffffffffffffffffffffffffffffffffffff16908060030160009054906101000a900473ffffffffffffffffffffffffffffffffffffffff16905084565b6000600180549050905090565b60008054906101000a900473ffffffffffffffffffffffffffffffffffffffff1673ffffffffffffffffffffffffffffffffffffffff163373ffffffffffffffffffffffffffffffffffffffff161462000308576040517f08c379a0000000000000000000000000000000000000000000000000000000008152600401620002ff9062000ac6565b60405180910390fd5b60003383836040516200031b90620006ff565b620003299392919062000a35565b604051809103906000f08015801562000346573d6000803e3d6000fd5b509050600160405180608001604052808373ffffffffffffffffffffffffffffffffffffffff1681526020018681526020018573ffffffffffffffffffffffffffffffffffffffff1681526020018473ffffffffffffffffffffffffffffffffffffffff16815250908060018154018082558091505060019003906000526020600020906004020160009091909190915060008201518160000160006101000a81548173ffffffffffffffffffffffffffffffffffffffff021916908373ffffffffffffffffffffffffffffffffffffffff16021790555060208201518160010190805190602001906200043c9291906200070d565b5060408201518160020160006101000a81548173ffffffffffffffffffffffffffffffffffffffff021916908373ffffffffffffffffffffffffffffffffffffffff16021790555060608201518160030160006101000a81548173ffffffffffffffffffffffffffffffffffffffff021916908373ffffffffffffffffffffffffffffffffffffffff16021790555050507f3a66e08161f40c7977943ce101a2eeb607160c490bd4be2f0bd6f33cf45732e06001808054905062000501919062000c0e565b828686866040516200051895949392919062000b27565b60405180910390a150505050565b60008054906101000a900473ffffffffffffffffffffffffffffffffffffffff1681565b6000606060008060018054905085106200059b576040517f08c379a0000000000000000000000000000000000000000000000000000000008152600401620005929062000ae8565b60405180910390fd5b600060018681548110620005d8577f4e487b7100000000000000000000000000000000000000000000000000000000600052603260045260246000fd5b906000526020600020906004020190508060000160009054906101000a900473ffffffffffffffffffffffffffffffffffffffff16816001018260020160009054906101000a900473ffffffffffffffffffffffffffffffffffffffff168360030160009054906101000a900473ffffffffffffffffffffffffffffffffffffffff16828054620006699062000d1c565b80601f0160208091040260200160405190810160405280929190818152602001828054620006979062000d1c565b8015620006e85780601f10620006bc57610100808354040283529160200191620006e8565b820191906000526020600020905b815481529060010190602001808311620006ca57829003601f168201915b505050505092509450945094509450509193509193565b61338f8062000e3f83390190565b8280546200071b9062000d1c565b90600052602060002090601f0160209004810192826200073f57600085556200078b565b82601f106200075a57805160ff19168380011785556200078b565b828001600101855582156200078b579182015b828111156200078a5782518255916020019190600101906200076d565b5b5090506200079a91906200079e565b5090565b5b80821115620007b95760008160009055506001016200079f565b5090565b6000620007d4620007ce8462000bbf565b62000b8b565b905082815260208101848484011115620007ed57600080fd5b620007fa84828562000cd7565b509392505050565b600081359050620008138162000df0565b92915050565b6000813590506200082a8162000e0a565b92915050565b600082601f8301126200084257600080fd5b813562000854848260208601620007bd565b91505092915050565b6000813590506200086e8162000e24565b92915050565b6000806000606084860312156200088a57600080fd5b600084013567ffffffffffffffff811115620008a557600080fd5b620008b38682870162000830565b9350506020620008c68682870162000819565b9250506040620008d98682870162000802565b9150509250925092565b600060208284031215620008f657600080fd5b600062000906848285016200085d565b91505092915050565b6200091a8162000c9b565b82525050565b6200092b8162000c5d565b82525050565b6200093c8162000c49565b82525050565b60006200094f8262000bf2565b6200095b818562000bfd565b93506200096d81856020860162000ce6565b620009788162000ddf565b840191505092915050565b600062000992601c8362000bfd565b91507f4f6e6c7920617574686f726974792063616e2063616c6c2074686973000000006000830152602082019050919050565b6000620009d4600d8362000bfd565b91507f496e76616c696420696e646578000000000000000000000000000000000000006000830152602082019050919050565b62000a128162000c91565b82525050565b600060208201905062000a2f600083018462000931565b92915050565b600060608201905062000a4c600083018662000931565b62000a5b602083018562000920565b62000a6a604083018462000931565b949350505050565b600060808201905062000a89600083018762000931565b818103602083015262000a9d818662000942565b905062000aae604083018562000931565b62000abd606083018462000931565b95945050505050565b6000602082019050818103600083015262000ae18162000983565b9050919050565b6000602082019050818103600083015262000b0381620009c5565b9050919050565b600060208201905062000b21600083018462000a07565b92915050565b600060a08201905062000b3e600083018862000a07565b62000b4d602083018762000931565b818103604083015262000b61818662000942565b905062000b7260608301856200090f565b62000b81608083018462000931565b9695505050505050565b6000604051905081810181811067ffffffffffffffff8211171562000bb55762000bb462000db0565b5b8060405250919050565b600067ffffffffffffffff82111562000bdd5762000bdc62000db0565b5b601f19601f8301169050602081019050919050565b600081519050919050565b600082825260208201905092915050565b600062000c1b8262000c91565b915062000c288362000c91565b92508282101562000c3e5762000c3d62000d52565b5b828203905092915050565b600062000c568262000c71565b9050919050565b600062000c6a8262000c71565b9050919050565b600073ffffffffffffffffffffffffffffffffffffffff82169050919050565b6000819050919050565b600062000ca88262000caf565b9050919050565b600062000cbc8262000cc3565b9050919050565b600062000cd08262000c71565b9050919050565b82818337600083830152505050565b60005b8381101562000d0657808201518184015260208101905062000ce9565b8381111562000d16576000848401525b50505050565b6000600282049050600182168062000d3557607f821691505b6020821081141562000d4c5762000d4b62000d81565b5b50919050565b7f4e487b7100000000000000000000000000000000000000000000000000000000600052601160045260246000fd5b7f4e487b7100000000000000000000000000000000000000000000000000000000600052602260045260246000fd5b7f4e487b7100000000000000000000000000000000000000000000000000000000600052604160045260246000fd5b6000601f19601f8301169050919050565b62000dfb8162000c49565b811462000e0757600080fd5b50565b62000e158162000c5d565b811462000e2157600080fd5b50565b62000e2f8162000c91565b811462000e3b57600080fd5b5056fe60806040523480156200001157600080fd5b506040516200338f3803806200338f833981810160405281019062000037919062000130565b826000806101000a81548173ffffffffffffffffffffffffffffffffffffffff021916908373ffffffffffffffffffffffffffffffffffffffff16021790555081600160006101000a81548173ffffffffffffffffffffffffffffffffffffffff021916908373ffffffffffffffffffffffffffffffffffffffff16021790555080600260006101000a81548173ffffffffffffffffffffffffffffffffffffffff021916908373ffffffffffffffffffffffffffffffffffffffff16021790555050505062000202565b6000815190506200011381620001ce565b92915050565b6000815190506200012a81620001e8565b92915050565b6000806000606084860312156200014657600080fd5b6000620001568682870162000102565b9350506020620001698682870162000119565b92505060406200017c8682870162000102565b9150509250925092565b60006200019382620001ae565b9050919050565b6000620001a782620001ae565b9050919050565b600073ffffffffffffffffffffffffffffffffffffffff82169050919050565b620001d98162000186565b8114620001e557600080fd5b50565b620001f3816200019a565b8114620001ff57600080fd5b50565b61317d80620002126000396000f3fe60806040526004361061012e5760003560e01c8063bf7e214f116100ab578063ce14aead1161006f578063ce14aead14610493578063db5ef4e5146104d5578063e89e4ed614610517578063ed2cee9e14610559578063ef39dfd914610584578063fbfd2045146105af576101d8565b8063bf7e214f146103be578063bfb6416a146103e9578063c156d19214610416578063c438b40f1461043f578063c78da39a14610468576101d8565b806345f51600116100f257806345f51600146102d957806384b62c281461030457806388685cd91461032d5780638f4cf24714610356578063aef18bf714610381576101d8565b806312065fe0146101dd5780632442e1cb1461020857806325a95bfd1461024a57806329315ea7146102735780633a23cc0a1461029c576101d8565b366101d8576000600354141561014a5734600381905550610164565b346003600082825461015c9190612eb1565b925050819055505b7faa2e070b2836a61656bb052c00da7076d0992fd90d7d0da7a8256bc4c6481cd86003546040516101959190612c4b565b60405180910390a17f8e47b87b0ef542cdfa1659c551d88bad38aa7f452d2bbb349ab7530dfec8be8f33346040516101ce929190612984565b60405180910390a1005b600080fd5b3480156101e957600080fd5b506101f26105da565b6040516101ff9190612c4b565b60405180910390f35b34801561021457600080fd5b5061022f600480360381019061022a91906123af565b6105e2565b604051610241969594939291906129e3565b60405180910390f35b34801561025657600080fd5b50610271600480360381019061026c91906123d8565b610765565b005b34801561027f57600080fd5b5061029a600480360381019061029591906123af565b61099a565b005b3480156102a857600080fd5b506102c360048036038101906102be91906123af565b610d13565b6040516102d091906129c8565b60405180910390f35b3480156102e557600080fd5b506102ee610daf565b6040516102fb9190612c4b565b60405180910390f35b34801561031057600080fd5b5061032b6004803603810190610326919061235b565b610db5565b005b34801561033957600080fd5b50610354600480360381019061034f91906123af565b610ff6565b005b34801561036257600080fd5b5061036b61149d565b6040516103789190612c4b565b60405180910390f35b34801561038d57600080fd5b506103a860048036038101906103a39190612332565b6114aa565b6040516103b591906129ad565b60405180910390f35b3480156103ca57600080fd5b506103d36114ca565b6040516103e0919061294e565b60405180910390f35b3480156103f557600080fd5b506103fe6114ee565b60405161040d93929190612dfd565b60405180910390f35b34801561042257600080fd5b5061043d60048036038101906104389190612414565b61152c565b005b34801561044b57600080fd5b50610466600480360381019061046191906123af565b611879565b005b34801561047457600080fd5b5061047d611d60565b60405161048a9190612c4b565b60405180910390f35b34801561049f57600080fd5b506104ba60048036038101906104b591906123af565b611d66565b6040516104cc96959493929190612cb8565b60405180910390f35b3480156104e157600080fd5b506104fc60048036038101906104f791906123af565b611ec2565b60405161050e96959493929190612cb8565b60405180910390f35b34801561052357600080fd5b5061053e600480360381019061053991906123af565b6120a9565b604051610550969594939291906129e3565b60405180910390f35b34801561056557600080fd5b5061056e6121a4565b60405161057b919061294e565b60405180910390f35b34801561059057600080fd5b506105996121ca565b6040516105a69190612c4b565b60405180910390f35b3480156105bb57600080fd5b506105c46121d7565b6040516105d19190612969565b60405180910390f35b600047905090565b606060008060008060006005805490508710610633576040517f08c379a000000000000000000000000000000000000000000000000000000000815260040161062a90612acb565b60405180910390fd5b60006005888154811061066f577f4e487b7100000000000000000000000000000000000000000000000000000000600052603260045260246000fd5b906000526020600020906005020190508060000181600101548260020160009054906101000a900460ff1683600301548460040160009054906101000a900460ff168560040160019054906101000a900460ff168580546106cf90613006565b80601f01602080910402602001604051908101604052809291908181526020018280546106fb90613006565b80156107485780601f1061071d57610100808354040283529160200191610748565b820191906000526020600020905b81548152906001019060200180831161072b57829003601f168201915b505050505095509650965096509650965096505091939550919395565b60008054906101000a900473ffffffffffffffffffffffffffffffffffffffff1673ffffffffffffffffffffffffffffffffffffffff163373ffffffffffffffffffffffffffffffffffffffff16146107f3576040517f08c379a00000000000000000000000000000000000000000000000000000000081526004016107ea90612a4b565b60405180910390fd5b600580549050821061083a576040517f08c379a000000000000000000000000000000000000000000000000000000000815260040161083190612b0b565b60405180910390fd5b6000801b811415610880576040517f08c379a000000000000000000000000000000000000000000000000000000000815260040161087790612a8b565b60405180910390fd5b6007600082815260200190815260200160002060009054906101000a900460ff16156108e1576040517f08c379a00000000000000000000000000000000000000000000000000000000081526004016108d890612beb565b60405180910390fd5b60016007600083815260200190815260200160002060006101000a81548160ff0219169083151502179055508060058381548110610948577f4e487b7100000000000000000000000000000000000000000000000000000000600052603260045260246000fd5b9060005260206000209060050201600301819055507fce2ec049d27f6914cb5aa6f72a6a6e6bacabc97ccf112b4683481b4ba4d98698828260405161098e929190612c8f565b60405180910390a15050565b60008054906101000a900473ffffffffffffffffffffffffffffffffffffffff1673ffffffffffffffffffffffffffffffffffffffff163373ffffffffffffffffffffffffffffffffffffffff1614610a28576040517f08c379a0000000000000000000000000000000000000000000000000000000008152600401610a1f90612a4b565b60405180910390fd5b6005805490508110610a6f576040517f08c379a0000000000000000000000000000000000000000000000000000000008152600401610a6690612b0b565b60405180910390fd5b60058181548110610aa9577f4e487b7100000000000000000000000000000000000000000000000000000000600052603260045260246000fd5b906000526020600020906005020160040160009054906101000a900460ff16610b07576040517f08c379a0000000000000000000000000000000000000000000000000000000008152600401610afe90612aeb565b60405180910390fd5b60058181548110610b41577f4e487b7100000000000000000000000000000000000000000000000000000000600052603260045260246000fd5b906000526020600020906005020160040160019054906101000a900460ff1615610ba0576040517f08c379a0000000000000000000000000000000000000000000000000000000008152600401610b9790612b6b565b60405180910390fd5b600160058281548110610bdc577f4e487b7100000000000000000000000000000000000000000000000000000000600052603260045260246000fd5b906000526020600020906005020160040160016101000a81548160ff021916908315150217905550600260058281548110610c40577f4e487b7100000000000000000000000000000000000000000000000000000000600052603260045260246000fd5b906000526020600020906005020160020160006101000a81548160ff02191690836003811115610c99577f4e487b7100000000000000000000000000000000000000000000000000000000600052602160045260246000fd5b02179055507f58c220b27d6f73567622f5a1d4867284ce492969ddb5e76c997a88d2a65279d48133604051610ccf929190612c66565b60405180910390a17f553edf5d6a50b30b5e1faa5428a9962e9b3af648e5ab3791bf7e79ccb10f7f558133604051610d08929190612c66565b60405180910390a150565b60006005805490508210610d5c576040517f08c379a0000000000000000000000000000000000000000000000000000000008152600401610d5390612b0b565b60405180910390fd5b60058281548110610d96577f4e487b7100000000000000000000000000000000000000000000000000000000600052603260045260246000fd5b9060005260206000209060050201600301549050919050565b60045481565b60008054906101000a900473ffffffffffffffffffffffffffffffffffffffff1673ffffffffffffffffffffffffffffffffffffffff163373ffffffffffffffffffffffffffffffffffffffff1614610e43576040517f08c379a0000000000000000000000000000000000000000000000000000000008152600401610e3a90612a4b565b60405180910390fd5b60056040518060c0016040528084815260200183815260200160006003811115610e96577f4e487b7100000000000000000000000000000000000000000000000000000000600052602160045260246000fd5b81526020016000801b81526020016000151581526020016000151581525090806001815401808255809150506001900390600052602060002090600502016000909190919091506000820151816000019080519060200190610ef99291906121fd565b506020820151816001015560408201518160020160006101000a81548160ff02191690836003811115610f55577f4e487b7100000000000000000000000000000000000000000000000000000000600052602160045260246000fd5b02179055506060820151816003015560808201518160040160006101000a81548160ff02191690831515021790555060a08201518160040160016101000a81548160ff02191690831515021790555050507fbf293db00f4de65b181a066ecc2f8bb81fb7174b517fd8085700e259ad00db1b6001600580549050610fd99190612f07565b8383604051610fea93929190612d27565b60405180910390a15050565b60008054906101000a900473ffffffffffffffffffffffffffffffffffffffff1673ffffffffffffffffffffffffffffffffffffffff163373ffffffffffffffffffffffffffffffffffffffff1614611084576040517f08c379a000000000000000000000000000000000000000000000000000000000815260040161107b90612a4b565b60405180910390fd5b60058054905081106110cb576040517f08c379a00000000000000000000000000000000000000000000000000000000081526004016110c290612b0b565b60405180910390fd5b60026003811115611105577f4e487b7100000000000000000000000000000000000000000000000000000000600052602160045260246000fd5b6005828154811061113f577f4e487b7100000000000000000000000000000000000000000000000000000000600052603260045260246000fd5b906000526020600020906005020160020160009054906101000a900460ff166003811115611196577f4e487b7100000000000000000000000000000000000000000000000000000000600052602160045260246000fd5b146111d6576040517f08c379a00000000000000000000000000000000000000000000000000000000081526004016111cd90612a6b565b60405180910390fd5b60058181548110611210577f4e487b7100000000000000000000000000000000000000000000000000000000600052603260045260246000fd5b906000526020600020906005020160010154471015611264576040517f08c379a000000000000000000000000000000000000000000000000000000000815260040161125b90612c2b565b60405180910390fd5b6003600582815481106112a0577f4e487b7100000000000000000000000000000000000000000000000000000000600052603260045260246000fd5b906000526020600020906005020160020160006101000a81548160ff021916908360038111156112f9577f4e487b7100000000000000000000000000000000000000000000000000000000600052602160045260246000fd5b021790555060058181548110611338577f4e487b7100000000000000000000000000000000000000000000000000000000600052603260045260246000fd5b9060005260206000209060050201600101546004600082825461135b9190612eb1565b92505081905550600160009054906101000a900473ffffffffffffffffffffffffffffffffffffffff1673ffffffffffffffffffffffffffffffffffffffff166108fc600583815481106113d8577f4e487b7100000000000000000000000000000000000000000000000000000000600052603260045260246000fd5b9060005260206000209060050201600101549081150290604051600060405180830381858888f19350505050158015611415573d6000803e3d6000fd5b507fc8ef479acdbffd729d96117b951d1c3ee85d98ef42699aec806bc4f0b522461d8160058381548110611472577f4e487b7100000000000000000000000000000000000000000000000000000000600052603260045260246000fd5b906000526020600020906005020160010154604051611492929190612d65565b60405180910390a150565b6000600580549050905090565b60076020528060005260406000206000915054906101000a900460ff1681565b60008054906101000a900473ffffffffffffffffffffffffffffffffffffffff1681565b60008060008060045460035411611506576000611517565b6004546003546115169190612f07565b5b90506003546004548293509350935050909192565b60008054906101000a900473ffffffffffffffffffffffffffffffffffffffff1673ffffffffffffffffffffffffffffffffffffffff163373ffffffffffffffffffffffffffffffffffffffff16146115ba576040517f08c379a00000000000000000000000000000000000000000000000000000000081526004016115b190612a4b565b60405180910390fd5b6005805490508510611601576040517f08c379a00000000000000000000000000000000000000000000000000000000081526004016115f890612b0b565b60405180910390fd5b6000845111611645576040517f08c379a000000000000000000000000000000000000000000000000000000000815260040161163c90612b4b565b60405180910390fd5b6000835111611689576040517f08c379a000000000000000000000000000000000000000000000000000000000815260040161168090612bcb565b60405180910390fd5b600082116116cc576040517f08c379a00000000000000000000000000000000000000000000000000000000081526004016116c390612bab565b60405180910390fd5b6000801b8114611764576007600082815260200190815260200160002060009054906101000a900460ff1615611737576040517f08c379a000000000000000000000000000000000000000000000000000000000815260040161172e90612beb565b60405180910390fd5b60016007600083815260200190815260200160002060006101000a81548160ff0219169083151502179055505b60066040518060c001604052808781526020018681526020018581526020018481526020018381526020014281525090806001815401808255809150506001900390600052602060002090600602016000909190919091506000820151816000015560208201518160010190805190602001906117e29291906121fd565b5060408201518160020190805190602001906117ff9291906121fd565b50606082015181600301556080820151816004015560a0820151816005015550507fced44d2857af6555d08b579c2be9285c42a2004750ff698332b293710d843f9160016006805490506118539190612f07565b868686868660405161186a96959493929190612d8e565b60405180910390a15050505050565b600260009054906101000a900473ffffffffffffffffffffffffffffffffffffffff1673ffffffffffffffffffffffffffffffffffffffff163373ffffffffffffffffffffffffffffffffffffffff1614611909576040517f08c379a000000000000000000000000000000000000000000000000000000000815260040161190090612c0b565b60405180910390fd5b6005805490508110611950576040517f08c379a000000000000000000000000000000000000000000000000000000000815260040161194790612b0b565b60405180910390fd5b6000600381111561198a577f4e487b7100000000000000000000000000000000000000000000000000000000600052602160045260246000fd5b600582815481106119c4577f4e487b7100000000000000000000000000000000000000000000000000000000600052603260045260246000fd5b906000526020600020906005020160020160009054906101000a900460ff166003811115611a1b577f4e487b7100000000000000000000000000000000000000000000000000000000600052602160045260246000fd5b14611a5b576040517f08c379a0000000000000000000000000000000000000000000000000000000008152600401611a5290612aab565b60405180910390fd5b60058181548110611a95577f4e487b7100000000000000000000000000000000000000000000000000000000600052603260045260246000fd5b906000526020600020906005020160040160009054906101000a900460ff1615611af4576040517f08c379a0000000000000000000000000000000000000000000000000000000008152600401611aeb90612b2b565b60405180910390fd5b600160058281548110611b30577f4e487b7100000000000000000000000000000000000000000000000000000000600052603260045260246000fd5b906000526020600020906005020160040160006101000a81548160ff021916908315150217905550600160058281548110611b94577f4e487b7100000000000000000000000000000000000000000000000000000000600052603260045260246000fd5b906000526020600020906005020160020160006101000a81548160ff02191690836003811115611bed577f4e487b7100000000000000000000000000000000000000000000000000000000600052602160045260246000fd5b02179055507f0b32e4d18dfb7702c831e50050f1dbaca44e9da9cbe3916293b104c359921f1e8133604051611c23929190612c66565b60405180910390a160058181548110611c65577f4e487b7100000000000000000000000000000000000000000000000000000000600052603260045260246000fd5b906000526020600020906005020160040160019054906101000a900460ff1615611d5d57600260058281548110611cc5577f4e487b7100000000000000000000000000000000000000000000000000000000600052603260045260246000fd5b906000526020600020906005020160020160006101000a81548160ff02191690836003811115611d1e577f4e487b7100000000000000000000000000000000000000000000000000000000600052602160045260246000fd5b02179055507f553edf5d6a50b30b5e1faa5428a9962e9b3af648e5ab3791bf7e79ccb10f7f558133604051611d54929190612c66565b60405180910390a15b50565b60035481565b60068181548110611d7657600080fd5b9060005260206000209060060201600091509050806000015490806001018054611d9f90613006565b80601f0160208091040260200160405190810160405280929190818152602001828054611dcb90613006565b8015611e185780601f10611ded57610100808354040283529160200191611e18565b820191906000526020600020905b815481529060010190602001808311611dfb57829003601f168201915b505050505090806002018054611e2d90613006565b80601f0160208091040260200160405190810160405280929190818152602001828054611e5990613006565b8015611ea65780601f10611e7b57610100808354040283529160200191611ea6565b820191906000526020600020905b815481529060010190602001808311611e8957829003601f168201915b5050505050908060030154908060040154908060050154905086565b600060608060008060006006805490508710611f13576040517f08c379a0000000000000000000000000000000000000000000000000000000008152600401611f0a90612b8b565b60405180910390fd5b600060068881548110611f4f577f4e487b7100000000000000000000000000000000000000000000000000000000600052603260045260246000fd5b9060005260206000209060060201905080600001548160010182600201836003015484600401548560050154848054611f8790613006565b80601f0160208091040260200160405190810160405280929190818152602001828054611fb390613006565b80156120005780601f10611fd557610100808354040283529160200191612000565b820191906000526020600020905b815481529060010190602001808311611fe357829003601f168201915b5050505050945083805461201390613006565b80601f016020809104026020016040519081016040528092919081815260200182805461203f90613006565b801561208c5780601f106120615761010080835404028352916020019161208c565b820191906000526020600020905b81548152906001019060200180831161206f57829003601f168201915b505050505093509650965096509650965096505091939550919395565b600581815481106120b957600080fd5b90600052602060002090600502016000915090508060000180546120dc90613006565b80601f016020809104026020016040519081016040528092919081815260200182805461210890613006565b80156121555780601f1061212a57610100808354040283529160200191612155565b820191906000526020600020905b81548152906001019060200180831161213857829003601f168201915b5050505050908060010154908060020160009054906101000a900460ff16908060030154908060040160009054906101000a900460ff16908060040160019054906101000a900460ff16905086565b600260009054906101000a900473ffffffffffffffffffffffffffffffffffffffff1681565b6000600680549050905090565b600160009054906101000a900473ffffffffffffffffffffffffffffffffffffffff1681565b82805461220990613006565b90600052602060002090601f01602090048101928261222b5760008555612272565b82601f1061224457805160ff1916838001178555612272565b82800160010185558215612272579182015b82811115612271578251825591602001919060010190612256565b5b50905061227f9190612283565b5090565b5b8082111561229c576000816000905550600101612284565b5090565b60006122b36122ae84612e65565b612e34565b9050828152602081018484840111156122cb57600080fd5b6122d6848285612fc4565b509392505050565b6000813590506122ed81613119565b92915050565b600082601f83011261230457600080fd5b81356123148482602086016122a0565b91505092915050565b60008135905061232c81613130565b92915050565b60006020828403121561234457600080fd5b6000612352848285016122de565b91505092915050565b6000806040838503121561236e57600080fd5b600083013567ffffffffffffffff81111561238857600080fd5b612394858286016122f3565b92505060206123a58582860161231d565b9150509250929050565b6000602082840312156123c157600080fd5b60006123cf8482850161231d565b91505092915050565b600080604083850312156123eb57600080fd5b60006123f98582860161231d565b925050602061240a858286016122de565b9150509250929050565b600080600080600060a0868803121561242c57600080fd5b600061243a8882890161231d565b955050602086013567ffffffffffffffff81111561245757600080fd5b612463888289016122f3565b945050604086013567ffffffffffffffff81111561248057600080fd5b61248c888289016122f3565b935050606061249d8882890161231d565b92505060806124ae888289016122de565b9150509295509295909350565b6124c481612f4d565b82525050565b6124d381612f3b565b82525050565b6124e281612f5f565b82525050565b6124f181612f6b565b82525050565b61250081612fb2565b82525050565b600061251182612e95565b61251b8185612ea0565b935061252b818560208601612fd3565b612534816130f4565b840191505092915050565b600061254c601c83612ea0565b91507f4f6e6c7920617574686f726974792063616e2063616c6c2074686973000000006000830152602082019050919050565b600061258c601283612ea0565b91507f4e6f742066756c6c7920617070726f76656400000000000000000000000000006000830152602082019050919050565b60006125cc600c83612ea0565b91507f496e76616c6964206861736800000000000000000000000000000000000000006000830152602082019050919050565b600061260c600b83612ea0565b91507f4e6f742070656e64696e670000000000000000000000000000000000000000006000830152602082019050919050565b600061264c600d83612ea0565b91507f496e76616c696420696e646578000000000000000000000000000000000000006000830152602082019050919050565b600061268c601c83612ea0565b91507f496e73706563746f72206d75737420617070726f7665206669727374000000006000830152602082019050919050565b60006126cc601783612ea0565b91507f496e76616c6964206d696c6573746f6e6520696e6465780000000000000000006000830152602082019050919050565b600061270c601a83612ea0565b91507f496e73706563746f7220616c726561647920617070726f7665640000000000006000830152602082019050919050565b600061274c601683612ea0565b91507f537570706c696572206e616d65207265717569726564000000000000000000006000830152602082019050919050565b600061278c601b83612ea0565b91507f417574686f7269747920616c726561647920636f6e6669726d656400000000006000830152602082019050919050565b60006127cc601183612ea0565b91507f496e76616c6964206c6f6720696e6465780000000000000000000000000000006000830152602082019050919050565b600061280c601b83612ea0565b91507f436f7374206d7573742062652067726561746572207468616e203000000000006000830152602082019050919050565b600061284c601d83612ea0565b91507f4d6174657269616c206465736372697074696f6e2072657175697265640000006000830152602082019050919050565b600061288c601683612ea0565b91507f4475706c696361746520696e766f6963652068617368000000000000000000006000830152602082019050919050565b60006128cc601c83612ea0565b91507f4f6e6c7920696e73706563746f722063616e2063616c6c2074686973000000006000830152602082019050919050565b600061290c601d83612ea0565b91507f496e73756666696369656e7420636f6e74726163742062616c616e63650000006000830152602082019050919050565b61294881612fa8565b82525050565b600060208201905061296360008301846124ca565b92915050565b600060208201905061297e60008301846124bb565b92915050565b600060408201905061299960008301856124ca565b6129a6602083018461293f565b9392505050565b60006020820190506129c260008301846124d9565b92915050565b60006020820190506129dd60008301846124e8565b92915050565b600060c08201905081810360008301526129fd8189612506565b9050612a0c602083018861293f565b612a1960408301876124f7565b612a2660608301866124e8565b612a3360808301856124d9565b612a4060a08301846124d9565b979650505050505050565b60006020820190508181036000830152612a648161253f565b9050919050565b60006020820190508181036000830152612a848161257f565b9050919050565b60006020820190508181036000830152612aa4816125bf565b9050919050565b60006020820190508181036000830152612ac4816125ff565b9050919050565b60006020820190508181036000830152612ae48161263f565b9050919050565b60006020820190508181036000830152612b048161267f565b9050919050565b60006020820190508181036000830152612b24816126bf565b9050919050565b60006020820190508181036000830152612b44816126ff565b9050919050565b60006020820190508181036000830152612b648161273f565b9050919050565b60006020820190508181036000830152612b848161277f565b9050919050565b60006020820190508181036000830152612ba4816127bf565b9050919050565b60006020820190508181036000830152612bc4816127ff565b9050919050565b60006020820190508181036000830152612be48161283f565b9050919050565b60006020820190508181036000830152612c048161287f565b9050919050565b60006020820190508181036000830152612c24816128bf565b9050919050565b60006020820190508181036000830152612c44816128ff565b9050919050565b6000602082019050612c60600083018461293f565b92915050565b6000604082019050612c7b600083018561293f565b612c8860208301846124ca565b9392505050565b6000604082019050612ca4600083018561293f565b612cb160208301846124e8565b9392505050565b600060c082019050612ccd600083018961293f565b8181036020830152612cdf8188612506565b90508181036040830152612cf38187612506565b9050612d02606083018661293f565b612d0f60808301856124e8565b612d1c60a083018461293f565b979650505050505050565b6000606082019050612d3c600083018661293f565b8181036020830152612d4e8185612506565b9050612d5d604083018461293f565b949350505050565b6000604082019050612d7a600083018561293f565b612d87602083018461293f565b9392505050565b600060c082019050612da3600083018961293f565b612db0602083018861293f565b8181036040830152612dc28187612506565b90508181036060830152612dd68186612506565b9050612de5608083018561293f565b612df260a08301846124e8565b979650505050505050565b6000606082019050612e12600083018661293f565b612e1f602083018561293f565b612e2c604083018461293f565b949350505050565b6000604051905081810181811067ffffffffffffffff82111715612e5b57612e5a6130c5565b5b8060405250919050565b600067ffffffffffffffff821115612e8057612e7f6130c5565b5b601f19601f8301169050602081019050919050565b600081519050919050565b600082825260208201905092915050565b6000612ebc82612fa8565b9150612ec783612fa8565b9250827fffffffffffffffffffffffffffffffffffffffffffffffffffffffffffffffff03821115612efc57612efb613038565b5b828201905092915050565b6000612f1282612fa8565b9150612f1d83612fa8565b925082821015612f3057612f2f613038565b5b828203905092915050565b6000612f4682612f88565b9050919050565b6000612f5882612f88565b9050919050565b60008115159050919050565b6000819050919050565b6000819050612f8382613105565b919050565b600073ffffffffffffffffffffffffffffffffffffffff82169050919050565b6000819050919050565b6000612fbd82612f75565b9050919050565b82818337600083830152505050565b60005b83811015612ff1578082015181840152602081019050612fd6565b83811115613000576000848401525b50505050565b6000600282049050600182168061301e57607f821691505b6020821081141561303257613031613096565b5b50919050565b7f4e487b7100000000000000000000000000000000000000000000000000000000600052601160045260246000fd5b7f4e487b7100000000000000000000000000000000000000000000000000000000600052602160045260246000fd5b7f4e487b7100000000000000000000000000000000000000000000000000000000600052602260045260246000fd5b7f4e487b7100000000000000000000000000000000000000000000000000000000600052604160045260246000fd5b6000601f19601f8301169050919050565b6004811061311657613115613067565b5b50565b61312281612f6b565b811461312d57600080fd5b50565b61313981612fa8565b811461314457600080fd5b5056fea2646970667358221220e7bcd0fefb62ac33490a66c1467e4f0e0f37f8c52dcee08554871248f2a805ba64736f6c63430008000033a2646970667358221220a30b9816f1675e50b12e81823daa357174288473c3bdb40527b360ac80f7aac564736f6c63430008000033",
  "immutableReferences": {},
  "source": "// SPDX-License-Identifier: MIT\r\npragma solidity ^0.8.0;\r\n\r\nimport \"./Project.sol\";\r\n\r\ncontract ProjectFactory {\r\n\r\n    address public authority;\r\n\r\n    struct ProjectInfo {\r\n        address contractAddress;\r\n        string name;\r\n        address contractor;\r\n        address inspector;\r\n    }\r\n\r\n    ProjectInfo[] public projects;\r\n\r\n    event ProjectCreated(uint256 index, address contractAddress, string name, address contractor, address inspector);\r\n\r\n    modifier onlyAuthority() {\r\n        require(msg.sender == authority, \"Only authority can call this\");\r\n        _;\r\n    }\r\n\r\n    constructor() {\r\n        authority = msg.sender;\r\n    }\r\n\r\n    function createProject(\r\n        string memory _name,\r\n        address payable _contractor,\r\n        address _inspector\r\n    ) external onlyAuthority {\r\n        Project newProject = new Project(msg.sender, _contractor, _inspector);\r\n        projects.push(ProjectInfo({\r\n            contractAddress: address(newProject),\r\n            name: _name,\r\n            contractor: _contractor,\r\n            inspector: _inspector\r\n        }));\r\n        emit ProjectCreated(projects.length - 1, address(newProject), _name, _contractor, _inspector);\r\n    }\r\n\r\n    function getProjectCount() external view returns (uint256) {\r\n        return projects.length;\r\n    }\r\n\r\n    function getProject(uint256 _index) external view returns (\r\n        address contractAddress,\r\n        string memory name,\r\n        address contractor,\r\n        address inspector\r\n    ) {\r\n        require(_index < projects.length, \"Invalid index\");\r\n        ProjectInfo storage p = projects[_index];\r\n        return (p.contractAddress, p.name, p.contractor, p.inspector);\r\n    }\r\n}",
  "sourcePath": "C:\\Users\\Hrishikesh Patil\\Documents\\MiniProject\\procurement-dapp\\blockchain\\contracts\\ProjectFactory.sol",
  "compiler": {
    "name": "solc",
    "version": "0.8.0+commit.c7dfd78e.Emscripten.clang"
  },
  "schemaVersion": "3.4.16",
  "updatedAt": "2026-03-20T20:58:25.525Z",
  "networkType": "ethereum",
  "devdoc": {
    "kind": "dev",
    "methods": {},
    "version": 1
  },
  "userdoc": {
    "kind": "user",
    "methods": {},
    "version": 1
  }
}