{
  "contractName": "Project",
  "abi": [
    {
      "inputs": [
        {
          "internalType": "address",
          "name": "_authority",
          "type": "address"
        },
        {
          "internalType": "address payable",
          "name": "_contractor",
          "type": "address"
        }
      ],
      "stateMutability": "nonpayable",
      "type": "constructor"
    },
    {
      "anonymous": false,
      "inputs": [
        {
          "indexed": false,
          "internalType": "address",
          "name": "sender",
          "type": "address"
        },
        {
          "indexed": false,
          "internalType": "uint256",
          "name": "amount",
          "type": "uint256"
        }
      ],
      "name": "FundsReceived",
      "type": "event"
    },
    {
      "anonymous": false,
      "inputs": [
        {
          "indexed": false,
          "internalType": "uint256",
          "name": "index",
          "type": "uint256"
        },
        {
          "indexed": false,
          "internalType": "bytes32",
          "name": "invoiceHash",
          "type": "bytes32"
        }
      ],
      "name": "InvoiceSubmitted",
      "type": "event"
    },
    {
      "anonymous": false,
      "inputs": [
        {
          "indexed": false,
          "internalType": "uint256",
          "name": "index",
          "type": "uint256"
        },
        {
          "indexed": false,
          "internalType": "string",
          "name": "description",
          "type": "string"
        },
        {
          "indexed": false,
          "internalType": "uint256",
          "name": "amount",
          "type": "uint256"
        }
      ],
      "name": "MilestoneAdded",
      "type": "event"
    },
    {
      "anonymous": false,
      "inputs": [
        {
          "indexed": false,
          "internalType": "uint256",
          "name": "index",
          "type": "uint256"
        }
      ],
      "name": "MilestoneApproved",
      "type": "event"
    },
    {
      "anonymous": false,
      "inputs": [
        {
          "indexed": false,
          "internalType": "uint256",
          "name": "index",
          "type": "uint256"
        },
        {
          "indexed": false,
          "internalType": "uint256",
          "name": "amount",
          "type": "uint256"
        }
      ],
      "name": "PaymentReleased",
      "type": "event"
    },
    {
      "inputs": [],
      "name": "authority",
      "outputs": [
        {
          "internalType": "address",
          "name": "",
          "type": "address"
        }
      ],
      "stateMutability": "view",
      "type": "function",
      "constant": true
    },
    {
      "inputs": [],
      "name": "contractor",
      "outputs": [
        {
          "internalType": "address payable",
          "name": "",
          "type": "address"
        }
      ],
      "stateMutability": "view",
      "type": "function",
      "constant": true
    },
    {
      "inputs": [
        {
          "internalType": "uint256",
          "name": "",
          "type": "uint256"
        }
      ],
      "name": "milestones",
      "outputs": [
        {
          "internalType": "string",
          "name": "description",
          "type": "string"
        },
        {
          "internalType": "uint256",
          "name": "amount",
          "type": "uint256"
        },
        {
          "internalType": "enum Project.MilestoneStatus",
          "name": "status",
          "type": "uint8"
        },
        {
          "internalType": "bytes32",
          "name": "invoiceHash",
          "type": "bytes32"
        }
      ],
      "stateMutability": "view",
      "type": "function",
      "constant": true
    },
    {
      "stateMutability": "payable",
      "type": "receive",
      "payable": true
    },
    {
      "inputs": [
        {
          "internalType": "string",
          "name": "_description",
          "type": "string"
        },
        {
          "internalType": "uint256",
          "name": "_amount",
          "type": "uint256"
        }
      ],
      "name": "addMilestone",
      "outputs": [],
      "stateMutability": "nonpayable",
      "type": "function"
    },
    {
      "inputs": [
        {
          "internalType": "uint256",
          "name": "_index",
          "type": "uint256"
        }
      ],
      "name": "approveMilestone",
      "outputs": [],
      "stateMutability": "nonpayable",
      "type": "function"
    },
    {
      "inputs": [
        {
          "internalType": "uint256",
          "name": "_index",
          "type": "uint256"
        }
      ],
      "name": "releasePayment",
      "outputs": [],
      "stateMutability": "nonpayable",
      "type": "function"
    },
    {
      "inputs": [
        {
          "internalType": "uint256",
          "name": "_index",
          "type": "uint256"
        },
        {
          "internalType": "bytes32",
          "name": "_invoiceHash",
          "type": "bytes32"
        }
      ],
      "name": "submitInvoice",
      "outputs": [],
      "stateMutability": "nonpayable",
      "type": "function"
    },
    {
      "inputs": [
        {
          "internalType": "uint256",
          "name": "_index",
          "type": "uint256"
        }
      ],
      "name": "getInvoice",
      "outputs": [
        {
          "internalType": "bytes32",
          "name": "",
          "type": "bytes32"
        }
      ],
      "stateMutability": "view",
      "type": "function",
      "constant": true
    },
    {
      "inputs": [],
      "name": "getMilestoneCount",
      "outputs": [
        {
          "internalType": "uint256",
          "name": "",
          "type": "uint256"
        }
      ],
      "stateMutability": "view",
      "type": "function",
      "constant": true
    },
    {
      "inputs": [],
      "name": "getBalance",
      "outputs": [
        {
          "internalType": "uint256",
          "name": "",
          "type": "uint256"
        }
      ],
      "stateMutability": "view",
      "type": "function",
      "constant": true
    },
    {
      "inputs": [
        {
          "internalType": "uint256",
          "name": "_index",
          "type": "uint256"
        }
      ],
      "name": "getMilestone",
      "outputs": [
        {
          "internalType": "string",
          "name": "description",
          "type": "string"
        },
        {
          "internalType": "uint256",
          "name": "amount",
          "type": "uint256"
        },
        {
          "internalType": "enum Project.MilestoneStatus",
          "name": "status",
          "type": "uint8"
        },
        {
          "internalType": "bytes32",
          "name": "invoiceHash",
          "type": "bytes32"
        }
      ],
      "stateMutability": "view",
      "type": "function",
      "constant": true
    }
  ],
  "bytecode": "0x60806040523480156200001157600080fd5b5060405162001bca38038062001bca8339818101604052810190620000379190620000ee565b816000806101000a81548173ffffffffffffffffffffffffffffffffffffffff021916908373ffffffffffffffffffffffffffffffffffffffff16021790555080600160006101000a81548173ffffffffffffffffffffffffffffffffffffffff021916908373ffffffffffffffffffffffffffffffffffffffff1602179055505050620001ab565b600081519050620000d18162000177565b92915050565b600081519050620000e88162000191565b92915050565b600080604083850312156200010257600080fd5b60006200011285828601620000c0565b92505060206200012585828601620000d7565b9150509250929050565b60006200013c8262000157565b9050919050565b6000620001508262000157565b9050919050565b600073ffffffffffffffffffffffffffffffffffffffff82169050919050565b62000182816200012f565b81146200018e57600080fd5b50565b6200019c8162000143565b8114620001a857600080fd5b50565b611a0f80620001bb6000396000f3fe6080604052600436106100a05760003560e01c806388685cd91161006457806388685cd9146101df5780638f4cf24714610208578063bf7e214f14610233578063c438b40f1461025e578063e89e4ed614610287578063fbfd2045146102c7576100e0565b806312065fe0146100e55780632442e1cb1461011057806325a95bfd146101505780633a23cc0a1461017957806384b62c28146101b6576100e0565b366100e0577f8e47b87b0ef542cdfa1659c551d88bad38aa7f452d2bbb349ab7530dfec8be8f33346040516100d692919061150d565b60405180910390a1005b600080fd5b3480156100f157600080fd5b506100fa6102f2565b604051610107919061167d565b60405180910390f35b34801561011c57600080fd5b506101376004803603810190610132919061122e565b6102fa565b6040516101479493929190611551565b60405180910390f35b34801561015c57600080fd5b5061017760048036038101906101729190611257565b610450565b005b34801561018557600080fd5b506101a0600480360381019061019b919061122e565b6105f8565b6040516101ad9190611536565b60405180910390f35b3480156101c257600080fd5b506101dd60048036038101906101d891906111da565b610694565b005b3480156101eb57600080fd5b506102066004803603810190610201919061122e565b610883565b005b34801561021457600080fd5b5061021d610cc5565b60405161022a919061167d565b60405180910390f35b34801561023f57600080fd5b50610248610cd2565b60405161025591906114d7565b60405180910390f35b34801561026a57600080fd5b506102856004803603810190610280919061122e565b610cf6565b005b34801561029357600080fd5b506102ae60048036038101906102a9919061122e565b610faa565b6040516102be9493929190611551565b60405180910390f35b3480156102d357600080fd5b506102dc61107f565b6040516102e991906114f2565b60405180910390f35b600047905090565b606060008060006002805490508510610348576040517f08c379a000000000000000000000000000000000000000000000000000000000815260040161033f906115fd565b60405180910390fd5b600060028681548110610384577f4e487b7100000000000000000000000000000000000000000000000000000000600052603260045260246000fd5b906000526020600020906004020190508060000181600101548260020160009054906101000a900460ff1683600301548380546103c090611898565b80601f01602080910402602001604051908101604052809291908181526020018280546103ec90611898565b80156104395780601f1061040e57610100808354040283529160200191610439565b820191906000526020600020905b81548152906001019060200180831161041c57829003601f168201915b505050505093509450945094509450509193509193565b60008054906101000a900473ffffffffffffffffffffffffffffffffffffffff1673ffffffffffffffffffffffffffffffffffffffff163373ffffffffffffffffffffffffffffffffffffffff16146104de576040517f08c379a00000000000000000000000000000000000000000000000000000000081526004016104d59061159d565b60405180910390fd5b6002805490508210610525576040517f08c379a000000000000000000000000000000000000000000000000000000000815260040161051c9061161d565b60405180910390fd5b6000801b81141561056b576040517f08c379a0000000000000000000000000000000000000000000000000000000008152600401610562906115bd565b60405180910390fd5b80600283815481106105a6577f4e487b7100000000000000000000000000000000000000000000000000000000600052603260045260246000fd5b9060005260206000209060040201600301819055507fce2ec049d27f6914cb5aa6f72a6a6e6bacabc97ccf112b4683481b4ba4d9869882826040516105ec929190611698565b60405180910390a15050565b60006002805490508210610641576040517f08c379a00000000000000000000000000000000000000000000000000000000081526004016106389061161d565b60405180910390fd5b6002828154811061067b577f4e487b7100000000000000000000000000000000000000000000000000000000600052603260045260246000fd5b9060005260206000209060040201600301549050919050565b60008054906101000a900473ffffffffffffffffffffffffffffffffffffffff1673ffffffffffffffffffffffffffffffffffffffff163373ffffffffffffffffffffffffffffffffffffffff1614610722576040517f08c379a00000000000000000000000000000000000000000000000000000000081526004016107199061159d565b60405180910390fd5b6002604051806080016040528084815260200183815260200160006002811115610775577f4e487b7100000000000000000000000000000000000000000000000000000000600052602160045260246000fd5b81526020016000801b815250908060018154018082558091505060019003906000526020600020906004020160009091909190915060008201518160000190805190602001906107c69291906110a5565b506020820151816001015560408201518160020160006101000a81548160ff02191690836002811115610822577f4e487b7100000000000000000000000000000000000000000000000000000000600052602160045260246000fd5b02179055506060820151816003015550507fbf293db00f4de65b181a066ecc2f8bb81fb7174b517fd8085700e259ad00db1b600160028054905061086691906117a5565b8383604051610877939291906116c1565b60405180910390a15050565b60008054906101000a900473ffffffffffffffffffffffffffffffffffffffff1673ffffffffffffffffffffffffffffffffffffffff163373ffffffffffffffffffffffffffffffffffffffff1614610911576040517f08c379a00000000000000000000000000000000000000000000000000000000081526004016109089061159d565b60405180910390fd5b6002805490508110610958576040517f08c379a000000000000000000000000000000000000000000000000000000000815260040161094f9061161d565b60405180910390fd5b60016002811115610992577f4e487b7100000000000000000000000000000000000000000000000000000000600052602160045260246000fd5b600282815481106109cc577f4e487b7100000000000000000000000000000000000000000000000000000000600052603260045260246000fd5b906000526020600020906004020160020160009054906101000a900460ff166002811115610a23577f4e487b7100000000000000000000000000000000000000000000000000000000600052602160045260246000fd5b14610a63576040517f08c379a0000000000000000000000000000000000000000000000000000000008152600401610a5a9061163d565b60405180910390fd5b60028181548110610a9d577f4e487b7100000000000000000000000000000000000000000000000000000000600052603260045260246000fd5b906000526020600020906004020160010154471015610af1576040517f08c379a0000000000000000000000000000000000000000000000000000000008152600401610ae89061165d565b60405180910390fd5b6002808281548110610b2c577f4e487b7100000000000000000000000000000000000000000000000000000000600052603260045260246000fd5b906000526020600020906004020160020160006101000a81548160ff02191690836002811115610b85577f4e487b7100000000000000000000000000000000000000000000000000000000600052602160045260246000fd5b0217905550600160009054906101000a900473ffffffffffffffffffffffffffffffffffffffff1673ffffffffffffffffffffffffffffffffffffffff166108fc60028381548110610c00577f4e487b7100000000000000000000000000000000000000000000000000000000600052603260045260246000fd5b9060005260206000209060040201600101549081150290604051600060405180830381858888f19350505050158015610c3d573d6000803e3d6000fd5b507fc8ef479acdbffd729d96117b951d1c3ee85d98ef42699aec806bc4f0b522461d8160028381548110610c9a577f4e487b7100000000000000000000000000000000000000000000000000000000600052603260045260246000fd5b906000526020600020906004020160010154604051610cba9291906116ff565b60405180910390a150565b6000600280549050905090565b60008054906101000a900473ffffffffffffffffffffffffffffffffffffffff1681565b60008054906101000a900473ffffffffffffffffffffffffffffffffffffffff1673ffffffffffffffffffffffffffffffffffffffff163373ffffffffffffffffffffffffffffffffffffffff1614610d84576040517f08c379a0000000000000000000000000000000000000000000000000000000008152600401610d7b9061159d565b60405180910390fd5b6002805490508110610dcb576040517f08c379a0000000000000000000000000000000000000000000000000000000008152600401610dc29061161d565b60405180910390fd5b60006002811115610e05577f4e487b7100000000000000000000000000000000000000000000000000000000600052602160045260246000fd5b60028281548110610e3f577f4e487b7100000000000000000000000000000000000000000000000000000000600052603260045260246000fd5b906000526020600020906004020160020160009054906101000a900460ff166002811115610e96577f4e487b7100000000000000000000000000000000000000000000000000000000600052602160045260246000fd5b14610ed6576040517f08c379a0000000000000000000000000000000000000000000000000000000008152600401610ecd906115dd565b60405180910390fd5b600160028281548110610f12577f4e487b7100000000000000000000000000000000000000000000000000000000600052603260045260246000fd5b906000526020600020906004020160020160006101000a81548160ff02191690836002811115610f6b577f4e487b7100000000000000000000000000000000000000000000000000000000600052602160045260246000fd5b02179055507f0adffe31a62a9e7e5068bdd6f839470d57dd0e18fac8a8d525196283eb9b392a81604051610f9f919061167d565b60405180910390a150565b60028181548110610fba57600080fd5b9060005260206000209060040201600091509050806000018054610fdd90611898565b80601f016020809104026020016040519081016040528092919081815260200182805461100990611898565b80156110565780601f1061102b57610100808354040283529160200191611056565b820191906000526020600020905b81548152906001019060200180831161103957829003601f168201915b5050505050908060010154908060020160009054906101000a900460ff16908060030154905084565b600160009054906101000a900473ffffffffffffffffffffffffffffffffffffffff1681565b8280546110b190611898565b90600052602060002090601f0160209004810192826110d3576000855561111a565b82601f106110ec57805160ff191683800117855561111a565b8280016001018555821561111a579182015b828111156111195782518255916020019190600101906110fe565b5b509050611127919061112b565b5090565b5b8082111561114457600081600090555060010161112c565b5090565b600061115b61115684611759565b611728565b90508281526020810184848401111561117357600080fd5b61117e848285611856565b509392505050565b600081359050611195816119ab565b92915050565b600082601f8301126111ac57600080fd5b81356111bc848260208601611148565b91505092915050565b6000813590506111d4816119c2565b92915050565b600080604083850312156111ed57600080fd5b600083013567ffffffffffffffff81111561120757600080fd5b6112138582860161119b565b9250506020611224858286016111c5565b9150509250929050565b60006020828403121561124057600080fd5b600061124e848285016111c5565b91505092915050565b6000806040838503121561126a57600080fd5b6000611278858286016111c5565b925050602061128985828601611186565b9150509250929050565b61129c816117eb565b82525050565b6112ab816117d9565b82525050565b6112ba816117fd565b82525050565b6112c981611844565b82525050565b60006112da82611789565b6112e48185611794565b93506112f4818560208601611865565b6112fd81611986565b840191505092915050565b6000611315601c83611794565b91507f4f6e6c7920617574686f726974792063616e2063616c6c2074686973000000006000830152602082019050919050565b6000611355600c83611794565b91507f496e76616c6964206861736800000000000000000000000000000000000000006000830152602082019050919050565b6000611395600b83611794565b91507f4e6f742070656e64696e670000000000000000000000000000000000000000006000830152602082019050919050565b60006113d5600d83611794565b91507f496e76616c696420696e646578000000000000000000000000000000000000006000830152602082019050919050565b6000611415601783611794565b91507f496e76616c6964206d696c6573746f6e6520696e6465780000000000000000006000830152602082019050919050565b6000611455600c83611794565b91507f4e6f7420617070726f76656400000000000000000000000000000000000000006000830152602082019050919050565b6000611495601d83611794565b91507f496e73756666696369656e7420636f6e74726163742062616c616e63650000006000830152602082019050919050565b6114d18161183a565b82525050565b60006020820190506114ec60008301846112a2565b92915050565b60006020820190506115076000830184611293565b92915050565b600060408201905061152260008301856112a2565b61152f60208301846114c8565b9392505050565b600060208201905061154b60008301846112b1565b92915050565b6000608082019050818103600083015261156b81876112cf565b905061157a60208301866114c8565b61158760408301856112c0565b61159460608301846112b1565b95945050505050565b600060208201905081810360008301526115b681611308565b9050919050565b600060208201905081810360008301526115d681611348565b9050919050565b600060208201905081810360008301526115f681611388565b9050919050565b60006020820190508181036000830152611616816113c8565b9050919050565b6000602082019050818103600083015261163681611408565b9050919050565b6000602082019050818103600083015261165681611448565b9050919050565b6000602082019050818103600083015261167681611488565b9050919050565b600060208201905061169260008301846114c8565b92915050565b60006040820190506116ad60008301856114c8565b6116ba60208301846112b1565b9392505050565b60006060820190506116d660008301866114c8565b81810360208301526116e881856112cf565b90506116f760408301846114c8565b949350505050565b600060408201905061171460008301856114c8565b61172160208301846114c8565b9392505050565b6000604051905081810181811067ffffffffffffffff8211171561174f5761174e611957565b5b8060405250919050565b600067ffffffffffffffff82111561177457611773611957565b5b601f19601f8301169050602081019050919050565b600081519050919050565b600082825260208201905092915050565b60006117b08261183a565b91506117bb8361183a565b9250828210156117ce576117cd6118ca565b5b828203905092915050565b60006117e48261181a565b9050919050565b60006117f68261181a565b9050919050565b6000819050919050565b600081905061181582611997565b919050565b600073ffffffffffffffffffffffffffffffffffffffff82169050919050565b6000819050919050565b600061184f82611807565b9050919050565b82818337600083830152505050565b60005b83811015611883578082015181840152602081019050611868565b83811115611892576000848401525b50505050565b600060028204905060018216806118b057607f821691505b602082108114156118c4576118c3611928565b5b50919050565b7f4e487b7100000000000000000000000000000000000000000000000000000000600052601160045260246000fd5b7f4e487b7100000000000000000000000000000000000000000000000000000000600052602160045260246000fd5b7f4e487b7100000000000000000000000000000000000000000000000000000000600052602260045260246000fd5b7f4e487b7100000000000000000000000000000000000000000000000000000000600052604160045260246000fd5b6000601f19601f8301169050919050565b600381106119a8576119a76118f9565b5b50565b6119b4816117fd565b81146119bf57600080fd5b50565b6119cb8161183a565b81146119d657600080fd5b5056fea2646970667358221220e855bb8061afe37254bdfc0392705a8cb6e6ee8ac0d7765826cdc206912e72af64736f6c63430008000033",
  "immutableReferences": {},
  "source": "// SPDX-License-Identifier: MIT\r\npragma solidity ^0.8.0;\r\n\r\ncontract Project {\r\n\r\n    address public authority;\r\n    address payable public contractor;\r\n\r\n    enum MilestoneStatus { Pending, Approved, Paid }\r\n\r\n    struct Milestone {\r\n        string description;\r\n        uint256 amount;\r\n        MilestoneStatus status;\r\n        bytes32 invoiceHash;\r\n    }\r\n\r\n    Milestone[] public milestones;\r\n\r\n    event MilestoneAdded(uint256 index, string description, uint256 amount);\r\n    event MilestoneApproved(uint256 index);\r\n    event PaymentReleased(uint256 index, uint256 amount);\r\n    event FundsReceived(address sender, uint256 amount);\r\n    event InvoiceSubmitted(uint256 index, bytes32 invoiceHash);\r\n\r\n    modifier onlyAuthority() {\r\n        require(msg.sender == authority, \"Only authority can call this\");\r\n        _;\r\n    }\r\n\r\n    // ← authority is now passed in explicitly\r\n    constructor(address _authority, address payable _contractor) {\r\n        authority   = _authority;\r\n        contractor  = _contractor;\r\n    }\r\n\r\n    receive() external payable {\r\n        emit FundsReceived(msg.sender, msg.value);\r\n    }\r\n\r\n    function addMilestone(string memory _description, uint256 _amount) external onlyAuthority {\r\n        milestones.push(Milestone({\r\n            description: _description,\r\n            amount: _amount,\r\n            status: MilestoneStatus.Pending,\r\n            invoiceHash: bytes32(0)\r\n        }));\r\n        emit MilestoneAdded(milestones.length - 1, _description, _amount);\r\n    }\r\n\r\n    function approveMilestone(uint256 _index) external onlyAuthority {\r\n        require(_index < milestones.length, \"Invalid milestone index\");\r\n        require(milestones[_index].status == MilestoneStatus.Pending, \"Not pending\");\r\n        milestones[_index].status = MilestoneStatus.Approved;\r\n        emit MilestoneApproved(_index);\r\n    }\r\n\r\n    function releasePayment(uint256 _index) external onlyAuthority {\r\n        require(_index < milestones.length, \"Invalid milestone index\");\r\n        require(milestones[_index].status == MilestoneStatus.Approved, \"Not approved\");\r\n        require(address(this).balance >= milestones[_index].amount, \"Insufficient contract balance\");\r\n        milestones[_index].status = MilestoneStatus.Paid;\r\n        contractor.transfer(milestones[_index].amount);\r\n        emit PaymentReleased(_index, milestones[_index].amount);\r\n    }\r\n\r\n    function submitInvoice(uint256 _index, bytes32 _invoiceHash) external onlyAuthority {\r\n        require(_index < milestones.length, \"Invalid milestone index\");\r\n        require(_invoiceHash != bytes32(0), \"Invalid hash\");\r\n        milestones[_index].invoiceHash = _invoiceHash;\r\n        emit InvoiceSubmitted(_index, _invoiceHash);\r\n    }\r\n\r\n    function getInvoice(uint256 _index) external view returns (bytes32) {\r\n        require(_index < milestones.length, \"Invalid milestone index\");\r\n        return milestones[_index].invoiceHash;\r\n    }\r\n\r\n    function getMilestoneCount() external view returns (uint256) {\r\n        return milestones.length;\r\n    }\r\n\r\n    function getBalance() external view returns (uint256) {\r\n        return address(this).balance;\r\n    }\r\n\r\n    function getMilestone(uint256 _index) external view returns (\r\n        string memory description,\r\n        uint256 amount,\r\n        MilestoneStatus status,\r\n        bytes32 invoiceHash\r\n    ) {\r\n        require(_index < milestones.length, \"Invalid index\");\r\n        Milestone storage m = milestones[_index];\r\n        return (m.description, m.amount, m.status, m.invoiceHash);\r\n    }\r\n}",
  "sourcePath": "C:\\Users\\Hrishikesh Patil\\Documents\\MiniProject\\procurement-dapp\\blockchain\\contracts\\Project.sol",
  "compiler": {
    "name": "solc",
    "version": "0.8.0+commit.c7dfd78e.Emscripten.clang"
  },
  "schemaVersion": "3.4.16",
  "updatedAt": "2026-03-20T17:09:08.247Z",
  "networkType": "ethereum",
  "devdoc": {
    "kind": "dev",
    "methods": {},
    "version": 1
  },
  "userdoc": {
    "kind": "user",
    "methods": {},
    "version": 1
  }
}