{
  "contractName": "ProjectFactory",
  "abi": [
    {
      "inputs": [],
      "stateMutability": "nonpayable",
      "type": "constructor"
    },
    {
      "anonymous": false,
      "inputs": [
        {
          "indexed": false,
          "internalType": "uint256",
          "name": "index",
          "type": "uint256"
        },
        {
          "indexed": false,
          "internalType": "address",
          "name": "contractAddress",
          "type": "address"
        },
        {
          "indexed": false,
          "internalType": "string",
          "name": "name",
          "type": "string"
        },
        {
          "indexed": false,
          "internalType": "address",
          "name": "contractor",
          "type": "address"
        },
        {
          "indexed": false,
          "internalType": "uint256",
          "name": "budget",
          "type": "uint256"
        }
      ],
      "name": "ProjectCreated",
      "type": "event"
    },
    {
      "inputs": [],
      "name": "authority",
      "outputs": [
        {
          "internalType": "address",
          "name": "",
          "type": "address"
        }
      ],
      "stateMutability": "view",
      "type": "function",
      "constant": true
    },
    {
      "inputs": [
        {
          "internalType": "uint256",
          "name": "",
          "type": "uint256"
        }
      ],
      "name": "projects",
      "outputs": [
        {
          "internalType": "address",
          "name": "contractAddress",
          "type": "address"
        },
        {
          "internalType": "string",
          "name": "name",
          "type": "string"
        },
        {
          "internalType": "address",
          "name": "contractor",
          "type": "address"
        },
        {
          "internalType": "uint256",
          "name": "initialBudget",
          "type": "uint256"
        }
      ],
      "stateMutability": "view",
      "type": "function",
      "constant": true
    },
    {
      "inputs": [
        {
          "internalType": "string",
          "name": "_name",
          "type": "string"
        },
        {
          "internalType": "address payable",
          "name": "_contractor",
          "type": "address"
        }
      ],
      "name": "createProject",
      "outputs": [],
      "stateMutability": "payable",
      "type": "function",
      "payable": true
    },
    {
      "inputs": [],
      "name": "getProjectCount",
      "outputs": [
        {
          "internalType": "uint256",
          "name": "",
          "type": "uint256"
        }
      ],
      "stateMutability": "view",
      "type": "function",
      "constant": true
    },
    {
      "inputs": [
        {
          "internalType": "uint256",
          "name": "_index",
          "type": "uint256"
        }
      ],
      "name": "getProject",
      "outputs": [
        {
          "internalType": "address",
          "name": "contractAddress",
          "type": "address"
        },
        {
          "internalType": "string",
          "name": "name",
          "type": "string"
        },
        {
          "internalType": "address",
          "name": "contractor",
          "type": "address"
        },
        {
          "internalType": "uint256",
          "name": "initialBudget",
          "type": "uint256"
        }
      ],
      "stateMutability": "view",
      "type": "function",
      "constant": true
    }
  ],
  "bytecode": "0x608060405234801561001057600080fd5b50600080546001600160a01b03191633179055614ef9806100326000396000f3fe60806040526004361061004a5760003560e01c8063107046bd1461004f5780633bcff3b014610088578063bf7e214f146100aa578063c65579ad146100cc578063f0f3f2c8146100e1575b600080fd5b34801561005b57600080fd5b5061006f61006a366004610671565b610101565b60405161007f9493929190610702565b60405180910390f35b34801561009457600080fd5b5061009d6101d9565b60405161007f91906107f7565b3480156100b657600080fd5b506100bf6101df565b60405161007f91906106d4565b6100df6100da3660046105bf565b6101ee565b005b3480156100ed57600080fd5b5061006f6100fc366004610671565b6103dd565b6001818154811061011157600080fd5b6000918252602090912060049091020180546001820180546001600160a01b039092169350906101409061085e565b80601f016020809104026020016040519081016040528092919081815260200182805461016c9061085e565b80156101b95780601f1061018e576101008083540402835291602001916101b9565b820191906000526020600020905b81548152906001019060200180831161019c57829003601f168201915b50505050600283015460039093015491926001600160a01b031691905084565b60015490565b6000546001600160a01b031681565b6000546001600160a01b031633146102215760405162461bcd60e51b815260040161021890610736565b60405180910390fd5b6001600160a01b0381166102475760405162461bcd60e51b8152600401610218906107cb565b600034116102675760405162461bcd60e51b81526004016102189061076d565b6000343383604051610278906104fd565b6102839291906106e8565b6040518091039082f09050801580156102a0573d6000803e3d6000fd5b50604080516080810182526001600160a01b03838116825260208083018881528783169484019490945234606084015260018054808201825560009190915283517fb10e2d527612073b26eecdfd717e6a320cf44b4afac2b0732d9fcbe2b7fa0cf6600490920291820180546001600160a01b031916919094161783559351805195965092949193610359937fb10e2d527612073b26eecdfd717e6a320cf44b4afac2b0732d9fcbe2b7fa0cf79091019291019061050a565b5060408201516002820180546001600160a01b0319166001600160a01b03909216919091179055606090910151600390910155600180547ff23dc1a893fba10fe2e2ec006f6b9698dcf2af2b8cacf8a5f626c254a17b3e9c916103bb9161083b565b828585346040516103d0959493929190610800565b60405180910390a1505050565b6000606060008060018054905085106104085760405162461bcd60e51b8152600401610218906107a4565b60006001868154811061042b57634e487b7160e01b600052603260045260246000fd5b600091825260209091206004909102018054600282015460038301546001840180549495506001600160a01b0393841694909390921691839061046d9061085e565b80601f01602080910402602001604051908101604052809291908181526020018280546104999061085e565b80156104e65780601f106104bb576101008083540402835291602001916104e6565b820191906000526020600020905b8154815290600101906020018083116104c957829003601f168201915b505050505092509450945094509450509193509193565b614614806108b083390190565b8280546105169061085e565b90600052602060002090601f016020900481019282610538576000855561057e565b82601f1061055157805160ff191683800117855561057e565b8280016001018555821561057e579182015b8281111561057e578251825591602001919060010190610563565b5061058a92915061058e565b5090565b5b8082111561058a576000815560010161058f565b80356001600160a01b03811681146105ba57600080fd5b919050565b600080604083850312156105d1578182fd5b823567ffffffffffffffff808211156105e8578384fd5b818501915085601f8301126105fb578384fd5b813560208282111561060f5761060f610899565b604051601f8301601f191681018201848111828210171561063257610632610899565b6040528281528483018201891015610648578687fd5b82828601838301378083018201969096526106648782016105a3565b9450505050509250929050565b600060208284031215610682578081fd5b5035919050565b60008151808452815b818110156106ae57602081850181015186830182015201610692565b818111156106bf5782602083870101525b50601f01601f19169290920160200192915050565b6001600160a01b0391909116815260200190565b6001600160a01b0392831681529116602082015260400190565b600060018060a01b038087168352608060208401526107246080840187610689565b94166040830152506060015292915050565b6020808252601c908201527f4f6e6c7920617574686f726974792063616e2063616c6c207468697300000000604082015260600190565b60208082526017908201527f496e697469616c20627564676574207265717569726564000000000000000000604082015260600190565b6020808252600d908201526c092dcecc2d8d2c840d2dcc8caf609b1b604082015260600190565b60208082526012908201527124b73b30b634b21031b7b73a3930b1ba37b960711b604082015260600190565b90815260200190565b600086825260018060a01b03808716602084015260a0604084015261082860a0840187610689565b9416606083015250608001529392505050565b60008282101561085957634e487b7160e01b81526011600452602481fd5b500390565b60028104600182168061087257607f821691505b6020821081141561089357634e487b7160e01b600052602260045260246000fd5b50919050565b634e487b7160e01b600052604160045260246000fdfe608060405260405162004614380380620046148339810160408190526200002691620000df565b600080546001600160a01b038085166001600160a01b03199283161790925560018054928416929091169190911790553415620000d7573460028190556040517faa2e070b2836a61656bb052c00da7076d0992fd90d7d0da7a8256bc4c6481cd891620000939162000136565b60405180910390a17f8e47b87b0ef542cdfa1659c551d88bad38aa7f452d2bbb349ab7530dfec8be8f3334604051620000ce9291906200011d565b60405180910390a15b505062000158565b60008060408385031215620000f2578182fd5b8251620000ff816200013f565b602084015190925062000112816200013f565b809150509250929050565b6001600160a01b03929092168252602082015260400190565b90815260200190565b6001600160a01b03811681146200015557600080fd5b50565b6144ac80620001686000396000f3fe6080604052600436106102085760003560e01c8063a847e5ea11610118578063c6221878116100a0578063e89e4ed61161006f578063e89e4ed614610652578063ea75dde414610672578063ef39dfd914610692578063fbfd2045146106a7578063ff57e740146106bc57610298565b8063c6221878146105d6578063c78da39a146105eb578063ce14aead14610600578063db5ef4e51461063257610298565b8063b25fbab1116100e7578063b25fbab114610530578063bf7e214f14610550578063bfb6416a14610572578063c156d19214610596578063c438b40f146105b657610298565b8063a847e5ea146104ae578063a9958950146104ce578063aec2101a146104ee578063aef18bf71461051057610298565b806345f516001161019b57806377e202e61161016a57806377e202e61461041957806380ee37fa14610439578063817dfbd61461045957806388685cd9146104795780638f4cf2471461049957610298565b806345f51600146103945780634a9fb752146103a95780634dfa8434146103c957806358e9f12e146103f957610298565b806333245998116101d757806333245998146103355780634471b22a1461034a57806344dbcdb91461035f57806344df1f6e1461037f57610298565b806312065fe01461029d57806321464bfe146102c85780632442e1cb146102dd57806329315ea71461031557610298565b3661029857346002600082825461021f9190614397565b90915550506002546040517faa2e070b2836a61656bb052c00da7076d0992fd90d7d0da7a8256bc4c6481cd8916102559161419f565b60405180910390a17f8e47b87b0ef542cdfa1659c551d88bad38aa7f452d2bbb349ab7530dfec8be8f333460405161028e9291906139bf565b60405180910390a1005b600080fd5b3480156102a957600080fd5b506102b26106dc565b6040516102bf919061419f565b60405180910390f35b6102db6102d6366004613752565b6106e0565b005b3480156102e957600080fd5b506102fd6102f8366004613752565b610929565b6040516102bf9c9b9a999897969594939291906139e3565b34801561032157600080fd5b506102db610330366004613752565b610c4b565b34801561034157600080fd5b506102db610e67565b34801561035657600080fd5b506102db610f24565b34801561036b57600080fd5b506102db61037a366004613872565b611097565b34801561038b57600080fd5b506102b2611259565b3480156103a057600080fd5b506102b261125f565b3480156103b557600080fd5b506102db6103c4366004613803565b611265565b3480156103d557600080fd5b506103e96103e4366004613752565b6114f4565b6040516102bf9493929190614257565b34801561040557600080fd5b506102db610414366004613752565b61160e565b34801561042557600080fd5b506102db6104343660046137d4565b611766565b34801561044557600080fd5b506103e9610454366004613752565b611b08565b34801561046557600080fd5b506102db61047436600461372f565b611bd0565b34801561048557600080fd5b506102db610494366004613752565b611ca1565b3480156104a557600080fd5b506102b2611f37565b3480156104ba57600080fd5b506102db6104c936600461376a565b611f3d565b3480156104da57600080fd5b506102db6104e9366004613752565b6121bf565b3480156104fa57600080fd5b5061050361250a565b6040516102bf91906139d8565b34801561051c57600080fd5b5061050361052b366004613752565b612513565b34801561053c57600080fd5b506102db61054b366004613752565b612528565b34801561055c57600080fd5b5061056561267b565b6040516102bf9190613991565b34801561057e57600080fd5b5061058761268a565b6040516102bf93929190614381565b3480156105a257600080fd5b506102db6105b13660046138b7565b6126c5565b3480156105c257600080fd5b506102db6105d1366004613752565b6128fc565b3480156105e257600080fd5b50610503612c02565b3480156105f757600080fd5b506102b2612c10565b34801561060c57600080fd5b5061062061061b366004613752565b612c16565b6040516102bf969594939291906142d1565b34801561063e57600080fd5b5061062061064d366004613752565b612d6e565b34801561065e57600080fd5b506102fd61066d366004613752565b612f19565b34801561067e57600080fd5b506102db61068d366004613824565b6131c8565b34801561069e57600080fd5b506102b26133e5565b3480156106b357600080fd5b506105656133eb565b3480156106c857600080fd5b506102db6106d7366004613872565b6133fa565b4790565b6000546001600160a01b031633146107135760405162461bcd60e51b815260040161070a90613afa565b60405180910390fd5b60065481106107345760405162461bcd60e51b815260040161070a90613c52565b60006006828154811061075757634e487b7160e01b600052603260045260246000fd5b60009182526020909120600260049092020181015460ff169081111561078d57634e487b7160e01b600052602160045260246000fd5b146107aa5760405162461bcd60e51b815260040161070a90613c2d565b600681815481106107cb57634e487b7160e01b600052603260045260246000fd5b90600052602060002090600402016000015434146107fb5760405162461bcd60e51b815260040161070a90613d50565b60016006828154811061081e57634e487b7160e01b600052603260045260246000fd5b906000526020600020906004020160020160006101000a81548160ff0219169083600281111561085e57634e487b7160e01b600052602160045260246000fd5b021790555034600260008282546108759190614397565b90915550506040517f9dc36cffb1606d6a0ad14e6e0c91990da8e521c84dc28d34a10d13c7c81daf7a906108ac9083903490614211565b60405180910390a17faa2e070b2836a61656bb052c00da7076d0992fd90d7d0da7a8256bc4c6481cd86002546040516108e5919061419f565b60405180910390a17f8e47b87b0ef542cdfa1659c551d88bad38aa7f452d2bbb349ab7530dfec8be8f333460405161091e9291906139bf565b60405180910390a150565b6060806000806000806000806000806060806005805490508d1061095f5760405162461bcd60e51b815260040161070a90613c52565b600060058e8154811061098257634e487b7160e01b600052603260045260246000fd5b60009182526020909120600a909102016002810154600382015460048301546005840154600685015460078601548654969750879660018801969560ff90811695946001600160a01b03811694600160a01b8204831694600160a81b90920483169390929091169060088b019060098c01908c906109ff906143c6565b80601f0160208091040260200160405190810160405280929190818152602001828054610a2b906143c6565b8015610a785780601f10610a4d57610100808354040283529160200191610a78565b820191906000526020600020905b815481529060010190602001808311610a5b57829003601f168201915b50505050509b508a8054610a8b906143c6565b80601f0160208091040260200160405190810160405280929190818152602001828054610ab7906143c6565b8015610b045780601f10610ad957610100808354040283529160200191610b04565b820191906000526020600020905b815481529060010190602001808311610ae757829003601f168201915b50505050509a50818054610b17906143c6565b80601f0160208091040260200160405190810160405280929190818152602001828054610b43906143c6565b8015610b905780601f10610b6557610100808354040283529160200191610b90565b820191906000526020600020905b815481529060010190602001808311610b7357829003601f168201915b50505050509150808054610ba3906143c6565b80601f0160208091040260200160405190810160405280929190818152602001828054610bcf906143c6565b8015610c1c5780601f10610bf157610100808354040283529160200191610c1c565b820191906000526020600020905b815481529060010190602001808311610bff57829003601f168201915b505050505090509c509c509c509c509c509c509c509c509c509c509c509c505091939597999b5091939597999b565b6000546001600160a01b03163314610c755760405162461bcd60e51b815260040161070a90613afa565b6005548110610c965760405162461bcd60e51b815260040161070a90613c52565b60058181548110610cb757634e487b7160e01b600052603260045260246000fd5b90600052602060002090600a020160050160149054906101000a900460ff16610cf25760405162461bcd60e51b815260040161070a90613cd6565b60058181548110610d1357634e487b7160e01b600052603260045260246000fd5b90600052602060002090600a020160050160159054906101000a900460ff1615610d4f5760405162461bcd60e51b815260040161070a90614174565b600160058281548110610d7257634e487b7160e01b600052603260045260246000fd5b90600052602060002090600a020160050160156101000a81548160ff021916908315150217905550600360058281548110610dbd57634e487b7160e01b600052603260045260246000fd5b600091825260209091206003600a9092020101805460ff19166001836006811115610df857634e487b7160e01b600052602160045260246000fd5b02179055507f58c220b27d6f73567622f5a1d4867284ce492969ddb5e76c997a88d2a65279d48133604051610e2e9291906141a8565b60405180910390a17f553edf5d6a50b30b5e1faa5428a9962e9b3af648e5ab3791bf7e79ccb10f7f55813360405161091e9291906141a8565b6000546001600160a01b03163314610e915760405162461bcd60e51b815260040161070a90613afa565b60045460ff16610eb35760405162461bcd60e51b815260040161070a90613d0d565b600454610100900460ff1615610edb5760405162461bcd60e51b815260040161070a90614149565b6004805461ff0019166101001790556040517f81b88f0ca6aa251a74ffd59f2ffd805267272f3a21e1381757891a8ac28e5bfc90610f1a903390613991565b60405180910390a1565b6001546001600160a01b03163314610f4e5760405162461bcd60e51b815260040161070a90613ed1565b600454610100900460ff1615610f765760405162461bcd60e51b815260040161070a90614149565b60045460ff1615610f995760405162461bcd60e51b815260040161070a9061400d565b60005b60055481101561105e57600060058281548110610fc957634e487b7160e01b600052603260045260246000fd5b600091825260209091206003600a90920201015460ff169050600481600681111561100457634e487b7160e01b600052602160045260246000fd5b148061102f5750600681600681111561102d57634e487b7160e01b600052602160045260246000fd5b145b61104b5760405162461bcd60e51b815260040161070a90614044565b508061105681614401565b915050610f9c565b506004805460ff191660011790556040517f53b599425664638960f0176fdd6a2ad1e066dc16eb6bf6f10d1285ec03be940e90600090a1565b6001546001600160a01b031633146110c15760405162461bcd60e51b815260040161070a90613ed1565b600454610100900460ff16156110e95760405162461bcd60e51b815260040161070a90613fb3565b600082116111095760405162461bcd60e51b815260040161070a90613ace565b600081511161112a5760405162461bcd60e51b815260040161070a90613aa5565b6040805160808101825283815260208082018481526000938301849052426060840152600680546001810182559452825160049094027ff652222313e28459528d920b65115c16c04f3efc82aaedc97be59f3f377c0d3f8101948555905180519394936111c0937ff652222313e28459528d920b65115c16c04f3efc82aaedc97be59f3f377c0d40909301929190910190613615565b5060408201518160020160006101000a81548160ff021916908360028111156111f957634e487b7160e01b600052602160045260246000fd5b0217905550606091909101516003909101556006547f2d25123eb497ce182a5fe7e72aab9d5d4396c6ad9f4e05280e07c0f0a34f1e5c9061123c906001906143af565b838360405161124d9392919061431b565b60405180910390a15050565b60065490565b60035481565b6001546001600160a01b0316331461128f5760405162461bcd60e51b815260040161070a90613ed1565b60055482106112b05760405162461bcd60e51b815260040161070a90613c52565b6000600583815481106112d357634e487b7160e01b600052603260045260246000fd5b600091825260209091206003600a90920201015460ff16600681111561130957634e487b7160e01b600052602160045260246000fd5b148061136a5750600580838154811061133257634e487b7160e01b600052603260045260246000fd5b600091825260209091206003600a90920201015460ff16600681111561136857634e487b7160e01b600052602160045260246000fd5b145b6113865760405162461bcd60e51b815260040161070a90613f08565b806113a35760405162461bcd60e51b815260040161070a90613fde565b60008181526008602052604090205460ff16156113d25760405162461bcd60e51b815260040161070a906140eb565b6000818152600860205260409020805460ff19166001179055600580548291908490811061141057634e487b7160e01b600052603260045260246000fd5b90600052602060002090600a02016004018190555060016005838154811061144857634e487b7160e01b600052603260045260246000fd5b600091825260209091206003600a9092020101805460ff1916600183600681111561148357634e487b7160e01b600052602160045260246000fd5b02179055507fce2ec049d27f6914cb5aa6f72a6a6e6bacabc97ccf112b4683481b4ba4d9869882826040516114b9929190614211565b60405180910390a17f28046f6253e5934906a849e27e9679e0c8900f4dc61c6809b626e86779761cf382338360405161124d939291906141bf565b60006060600080600680549050851061151f5760405162461bcd60e51b815260040161070a90613c52565b60006006868154811061154257634e487b7160e01b600052603260045260246000fd5b906000526020600020906004020190508060000154816001018260020160009054906101000a900460ff16836003015482805461157e906143c6565b80601f01602080910402602001604051908101604052809291908181526020018280546115aa906143c6565b80156115f75780601f106115cc576101008083540402835291602001916115f7565b820191906000526020600020905b8154815290600101906020018083116115da57829003601f168201915b505050505092509450945094509450509193509193565b6000546001600160a01b031633146116385760405162461bcd60e51b815260040161070a90613afa565b60065481106116595760405162461bcd60e51b815260040161070a90613c52565b60006006828154811061167c57634e487b7160e01b600052603260045260246000fd5b60009182526020909120600260049092020181015460ff16908111156116b257634e487b7160e01b600052602160045260246000fd5b146116cf5760405162461bcd60e51b815260040161070a90613c2d565b6002600682815481106116f257634e487b7160e01b600052603260045260246000fd5b906000526020600020906004020160020160006101000a81548160ff0219169083600281111561173257634e487b7160e01b600052602160045260246000fd5b02179055507fb5345f632a37e4730a48a852551bd3987938a329e96f32840722a6aa25433ce98160405161091e919061419f565b6000546001600160a01b031633146117905760405162461bcd60e51b815260040161070a90613afa565b60055482106117b15760405162461bcd60e51b815260040161070a90613c52565b6001600583815481106117d457634e487b7160e01b600052603260045260246000fd5b600091825260209091206003600a90920201015460ff16600681111561180a57634e487b7160e01b600052602160045260246000fd5b146118275760405162461bcd60e51b815260040161070a906140c1565b6001600160a01b03811661184d5760405162461bcd60e51b815260040161070a90613e38565b6000546001600160a01b038281169116141561187b5760405162461bcd60e51b815260040161070a90613e63565b6001546001600160a01b03828116911614156118a95760405162461bcd60e51b815260040161070a90613f7c565b80600583815481106118cb57634e487b7160e01b600052603260045260246000fd5b90600052602060002090600a020160050160006101000a8154816001600160a01b0302191690836001600160a01b0316021790555060026005838154811061192357634e487b7160e01b600052603260045260246000fd5b600091825260209091206003600a9092020101805460ff1916600183600681111561195e57634e487b7160e01b600052602160045260246000fd5b021790555060006005838154811061198657634e487b7160e01b600052603260045260246000fd5b90600052602060002090600a020160050160146101000a81548160ff0219169083151502179055506000600583815481106119d157634e487b7160e01b600052603260045260246000fd5b600091825260208220600a9190910201600701805460ff1916921515929092179091556005805484908110611a1657634e487b7160e01b600052603260045260246000fd5b90600052602060002090600a0201600601819055506040518060200160405280600081525060058381548110611a5c57634e487b7160e01b600052603260045260246000fd5b90600052602060002090600a02016008019080519060200190611a80929190613615565b506040518060200160405280600081525060058381548110611ab257634e487b7160e01b600052603260045260246000fd5b90600052602060002090600a02016009019080519060200190611ad6929190613615565b507f052cae152c6f1a4809400bbd230d049d4daa88fa88da384f671f151d08c158d9828260405161124d9291906141a8565b60068181548110611b1857600080fd5b60009182526020909120600490910201805460018201805491935090611b3d906143c6565b80601f0160208091040260200160405190810160405280929190818152602001828054611b69906143c6565b8015611bb65780601f10611b8b57610100808354040283529160200191611bb6565b820191906000526020600020905b815481529060010190602001808311611b9957829003601f168201915b505050506002830154600390930154919260ff1691905084565b6000546001600160a01b03163314611bfa5760405162461bcd60e51b815260040161070a90613afa565b6001600160a01b038116611c205760405162461bcd60e51b815260040161070a90613b57565b6000546001600160a01b0382811691161415611c4e5760405162461bcd60e51b815260040161070a90613bd1565b600180546001600160a01b038381166001600160a01b03198316179092556040519116907f312750b559806305f3d0befa10403a6d561f16b1a994879667036e194da932f89061124d90839085906139a5565b6000546001600160a01b03163314611ccb5760405162461bcd60e51b815260040161070a90613afa565b6005548110611cec5760405162461bcd60e51b815260040161070a90613c52565b600360058281548110611d0f57634e487b7160e01b600052603260045260246000fd5b600091825260209091206003600a90920201015460ff166006811115611d4557634e487b7160e01b600052602160045260246000fd5b14611d625760405162461bcd60e51b815260040161070a90613e12565b60058181548110611d8357634e487b7160e01b600052603260045260246000fd5b90600052602060002090600a020160020154471015611db45760405162461bcd60e51b815260040161070a90613ca8565b600460058281548110611dd757634e487b7160e01b600052603260045260246000fd5b600091825260209091206003600a9092020101805460ff19166001836006811115611e1257634e487b7160e01b600052602160045260246000fd5b021790555060058181548110611e3857634e487b7160e01b600052603260045260246000fd5b90600052602060002090600a02016002015460036000828254611e5b9190614397565b9091555050600154600580546001600160a01b03909216916108fc919084908110611e9657634e487b7160e01b600052603260045260246000fd5b90600052602060002090600a0201600201549081150290604051600060405180830381858888f19350505050158015611ed3573d6000803e3d6000fd5b507fc8ef479acdbffd729d96117b951d1c3ee85d98ef42699aec806bc4f0b522461d8160058381548110611f1757634e487b7160e01b600052603260045260246000fd5b90600052602060002090600a02016002015460405161091e929190614211565b60055490565b6001546001600160a01b03163314611f675760405162461bcd60e51b815260040161070a90613ed1565b600454610100900460ff1615611f8f5760405162461bcd60e51b815260040161070a9061408a565b600560405180610180016040528085815260200184815260200183815260200160006006811115611fd057634e487b7160e01b600052602160045260246000fd5b8152600060208083018290526040808401839052606084018390526080840183905260a0840183905260c084018390528051808301825283815260e08501528051808301909152828152610100909301929092528354600181018555938152819020825180519394600a029091019261204c9284920190613615565b5060208281015180516120659260018501920190613615565b5060408201516002820155606082015160038201805460ff191660018360068111156120a157634e487b7160e01b600052602160045260246000fd5b02179055506080820151600482015560a082015160058201805460c085015160e08601511515600160a81b0260ff60a81b19911515600160a01b0260ff60a01b196001600160a01b039096166001600160a01b031990941693909317949094169190911716919091179055610100820151600682015561012082015160078201805491151560ff19909216919091179055610140820151805161214e916008840191602090910190613615565b50610160820151805161216b916009840191602090910190613615565b50506005547fd4b3c42f29168d6e31be647da19980eec5de27597c8cd27f4ba9f206df84b05e915061219f906001906143af565b8484846040516121b29493929190614294565b60405180910390a1505050565b6000546001600160a01b031633146121e95760405162461bcd60e51b815260040161070a90613afa565b600554811061220a5760405162461bcd60e51b815260040161070a90613c52565b600580828154811061222c57634e487b7160e01b600052603260045260246000fd5b600091825260209091206003600a90920201015460ff16600681111561226257634e487b7160e01b600052602160045260246000fd5b1461227f5760405162461bcd60e51b815260040161070a90613b31565b6000600582815481106122a257634e487b7160e01b600052603260045260246000fd5b600091825260209091206003600a9092020101805460ff191660018360068111156122dd57634e487b7160e01b600052602160045260246000fd5b02179055506000801b6005828154811061230757634e487b7160e01b600052603260045260246000fd5b90600052602060002090600a02016004018190555060006005828154811061233f57634e487b7160e01b600052603260045260246000fd5b90600052602060002090600a020160050160146101000a81548160ff02191690831515021790555060006005828154811061238a57634e487b7160e01b600052603260045260246000fd5b90600052602060002090600a020160050160156101000a81548160ff0219169083151502179055506000600582815481106123d557634e487b7160e01b600052603260045260246000fd5b600091825260208220600a9190910201600701805460ff191692151592909217909155600580548390811061241a57634e487b7160e01b600052603260045260246000fd5b90600052602060002090600a020160060181905550604051806020016040528060008152506005828154811061246057634e487b7160e01b600052603260045260246000fd5b90600052602060002090600a02016008019080519060200190612484929190613615565b5060405180602001604052806000815250600582815481106124b657634e487b7160e01b600052603260045260246000fd5b90600052602060002090600a020160090190805190602001906124da929190613615565b507f3bb9fa5191a3e95a08871a4fedd7a8fee241c15990b12052f2656f72ddf583ee8160405161091e919061419f565b60045460ff1681565b60086020526000908152604090205460ff1681565b6001546001600160a01b031633146125525760405162461bcd60e51b815260040161070a90613ed1565b60055481106125735760405162461bcd60e51b815260040161070a90613c52565b60006005828154811061259657634e487b7160e01b600052603260045260246000fd5b600091825260209091206003600a90920201015460ff1660068111156125cc57634e487b7160e01b600052602160045260246000fd5b146125e95760405162461bcd60e51b815260040161070a90613da6565b60066005828154811061260c57634e487b7160e01b600052603260045260246000fd5b600091825260209091206003600a9092020101805460ff1916600183600681111561264757634e487b7160e01b600052602160045260246000fd5b02179055507f6bf4210ebf4b952c360f3f2b4e167b2a9079a955f0a95b227985ed311b1b76da8160405161091e919061419f565b6000546001600160a01b031681565b600080600080600354600254116126a25760006126b2565b6003546002546126b291906143af565b6002546003549095509350915050909192565b6001546001600160a01b031633146126ef5760405162461bcd60e51b815260040161070a90613ed1565b60055485106127105760405162461bcd60e51b815260040161070a90613c52565b60008451116127315760405162461bcd60e51b815260040161070a90613d7b565b60008351116127525760405162461bcd60e51b815260040161070a9061411b565b600082116127725760405162461bcd60e51b815260040161070a90613de8565b80156127c15760008181526008602052604090205460ff16156127a75760405162461bcd60e51b815260040161070a90613f54565b6000818152600860205260409020805460ff191660011790555b6040805160c081018252868152602080820187815292820186905260608201859052608082018490524260a083015260078054600181018255600091909152825160069091027fa66cc928b5edb82af9bd49922954155ab7b0942694bea4ce44661d9a8736c68881019182559351805193949193612868937fa66cc928b5edb82af9bd49922954155ab7b0942694bea4ce44661d9a8736c689909301929190910190613615565b5060408201518051612884916002840191602090910190613615565b50606082015160038201556080820151600482015560a0909101516005909101556007547fced44d2857af6555d08b579c2be9285c42a2004750ff698332b293710d843f91906128d6906001906143af565b86868686866040516128ed9695949392919061433a565b60405180910390a15050505050565b806005818154811061291e57634e487b7160e01b600052603260045260246000fd5b60009182526020909120600a90910201600501546001600160a01b031633146129595760405162461bcd60e51b815260040161070a90613e9a565b600554821061297a5760405162461bcd60e51b815260040161070a90613c52565b60026005838154811061299d57634e487b7160e01b600052603260045260246000fd5b600091825260209091206003600a90920201015460ff1660068111156129d357634e487b7160e01b600052602160045260246000fd5b146129f05760405162461bcd60e51b815260040161070a90613baa565b60058281548110612a1157634e487b7160e01b600052603260045260246000fd5b600091825260209091206007600a90920201015460ff16612a445760405162461bcd60e51b815260040161070a90613bfe565b60058281548110612a6557634e487b7160e01b600052603260045260246000fd5b90600052602060002090600a020160050160149054906101000a900460ff1615612aa15760405162461bcd60e51b815260040161070a90613b80565b600160058381548110612ac457634e487b7160e01b600052603260045260246000fd5b90600052602060002090600a020160050160146101000a81548160ff0219169083151502179055507f0b32e4d18dfb7702c831e50050f1dbaca44e9da9cbe3916293b104c359921f1e8233604051612b1d9291906141a8565b60405180910390a160058281548110612b4657634e487b7160e01b600052603260045260246000fd5b90600052602060002090600a020160050160159054906101000a900460ff1615612bfe57600360058381548110612b8d57634e487b7160e01b600052603260045260246000fd5b600091825260209091206003600a9092020101805460ff19166001836006811115612bc857634e487b7160e01b600052602160045260246000fd5b02179055507f553edf5d6a50b30b5e1faa5428a9962e9b3af648e5ab3791bf7e79ccb10f7f55823360405161124d9291906141a8565b5050565b600454610100900460ff1681565b60025481565b60078181548110612c2657600080fd5b60009182526020909120600690910201805460018201805491935090612c4b906143c6565b80601f0160208091040260200160405190810160405280929190818152602001828054612c77906143c6565b8015612cc45780601f10612c9957610100808354040283529160200191612cc4565b820191906000526020600020905b815481529060010190602001808311612ca757829003601f168201915b505050505090806002018054612cd9906143c6565b80601f0160208091040260200160405190810160405280929190818152602001828054612d05906143c6565b8015612d525780601f10612d2757610100808354040283529160200191612d52565b820191906000526020600020905b815481529060010190602001808311612d3557829003601f168201915b5050505050908060030154908060040154908060050154905086565b600060608060008060006007805490508710612d9c5760405162461bcd60e51b815260040161070a90613c52565b600060078881548110612dbf57634e487b7160e01b600052603260045260246000fd5b9060005260206000209060060201905080600001548160010182600201836003015484600401548560050154848054612df7906143c6565b80601f0160208091040260200160405190810160405280929190818152602001828054612e23906143c6565b8015612e705780601f10612e4557610100808354040283529160200191612e70565b820191906000526020600020905b815481529060010190602001808311612e5357829003601f168201915b50505050509450838054612e83906143c6565b80601f0160208091040260200160405190810160405280929190818152602001828054612eaf906143c6565b8015612efc5780601f10612ed157610100808354040283529160200191612efc565b820191906000526020600020905b815481529060010190602001808311612edf57829003601f168201915b505050505093509650965096509650965096505091939550919395565b60058181548110612f2957600080fd5b90600052602060002090600a0201600091509050806000018054612f4c906143c6565b80601f0160208091040260200160405190810160405280929190818152602001828054612f78906143c6565b8015612fc55780601f10612f9a57610100808354040283529160200191612fc5565b820191906000526020600020905b815481529060010190602001808311612fa857829003601f168201915b505050505090806001018054612fda906143c6565b80601f0160208091040260200160405190810160405280929190818152602001828054613006906143c6565b80156130535780601f1061302857610100808354040283529160200191613053565b820191906000526020600020905b81548152906001019060200180831161303657829003601f168201915b505050506002830154600384015460048501546005860154600687015460078801546008890180549899969860ff968716985094966001600160a01b03851696600160a01b8604811696600160a81b9096048116959316929091906130b7906143c6565b80601f01602080910402602001604051908101604052809291908181526020018280546130e3906143c6565b80156131305780601f1061310557610100808354040283529160200191613130565b820191906000526020600020905b81548152906001019060200180831161311357829003601f168201915b505050505090806009018054613145906143c6565b80601f0160208091040260200160405190810160405280929190818152602001828054613171906143c6565b80156131be5780601f10613193576101008083540402835291602001916131be565b820191906000526020600020905b8154815290600101906020018083116131a157829003601f168201915b505050505090508c565b82600581815481106131ea57634e487b7160e01b600052603260045260246000fd5b60009182526020909120600a90910201600501546001600160a01b031633146132255760405162461bcd60e51b815260040161070a90613e9a565b60055484106132465760405162461bcd60e51b815260040161070a90613c52565b60026005858154811061326957634e487b7160e01b600052603260045260246000fd5b600091825260209091206003600a90920201015460ff16600681111561329f57634e487b7160e01b600052602160045260246000fd5b146132bc5760405162461bcd60e51b815260040161070a90613baa565b826132d95760405162461bcd60e51b815260040161070a90613c79565b82600585815481106132fb57634e487b7160e01b600052603260045260246000fd5b90600052602060002090600a02016006018190555060016005858154811061333357634e487b7160e01b600052603260045260246000fd5b90600052602060002090600a020160070160006101000a81548160ff021916908315150217905550816005858154811061337d57634e487b7160e01b600052603260045260246000fd5b90600052602060002090600a020160080190805190602001906133a1929190613615565b507f9d8cf8a1b13e39e2a951e8a70c008a2299c7fbbe92b786089850f9ebf690a98d848484336040516133d7949392919061421f565b60405180910390a150505050565b60075490565b6001546001600160a01b031681565b816005818154811061341c57634e487b7160e01b600052603260045260246000fd5b60009182526020909120600a90910201600501546001600160a01b031633146134575760405162461bcd60e51b815260040161070a90613e9a565b60055483106134785760405162461bcd60e51b815260040161070a90613c52565b60026005848154811061349b57634e487b7160e01b600052603260045260246000fd5b600091825260209091206003600a90920201015460ff1660068111156134d157634e487b7160e01b600052602160045260246000fd5b146134ee5760405162461bcd60e51b815260040161070a90613baa565b600580848154811061351057634e487b7160e01b600052603260045260246000fd5b600091825260209091206003600a9092020101805460ff1916600183600681111561354b57634e487b7160e01b600052602160045260246000fd5b0217905550816005848154811061357257634e487b7160e01b600052603260045260246000fd5b90600052602060002090600a02016009019080519060200190613596929190613615565b506000600584815481106135ba57634e487b7160e01b600052603260045260246000fd5b90600052602060002090600a020160050160146101000a81548160ff0219169083151502179055507f32b641c83901e43ae78aa018710c01270701f64fa72dbf9ad83faebe0305a2578333846040516121b2939291906141de565b828054613621906143c6565b90600052602060002090601f0160209004810192826136435760008555613689565b82601f1061365c57805160ff1916838001178555613689565b82800160010185558215613689579182015b8281111561368957825182559160200191906001019061366e565b50613695929150613699565b5090565b5b80821115613695576000815560010161369a565b600082601f8301126136be578081fd5b813567ffffffffffffffff808211156136d9576136d9614448565b604051601f8301601f1916810160200182811182821017156136fd576136fd614448565b604052828152848301602001861015613714578384fd5b82602086016020830137918201602001929092529392505050565b600060208284031215613740578081fd5b813561374b8161445e565b9392505050565b600060208284031215613763578081fd5b5035919050565b60008060006060848603121561377e578182fd5b833567ffffffffffffffff80821115613795578384fd5b6137a1878388016136ae565b945060208601359150808211156137b6578384fd5b506137c3868287016136ae565b925050604084013590509250925092565b600080604083850312156137e6578182fd5b8235915060208301356137f88161445e565b809150509250929050565b60008060408385031215613815578182fd5b50508035926020909101359150565b600080600060608486031215613838578283fd5b8335925060208401359150604084013567ffffffffffffffff81111561385c578182fd5b613868868287016136ae565b9150509250925092565b60008060408385031215613884578182fd5b82359150602083013567ffffffffffffffff8111156138a1578182fd5b6138ad858286016136ae565b9150509250929050565b600080600080600060a086880312156138ce578081fd5b85359450602086013567ffffffffffffffff808211156138ec578283fd5b6138f889838a016136ae565b9550604088013591508082111561390d578283fd5b5061391a888289016136ae565b9598949750949560608101359550608001359392505050565b6001600160a01b03169052565b15159052565b60008151808452815b8181101561396b5760208185018101518683018201520161394f565b8181111561397c5782602083870101525b50601f01601f19169290920160200192915050565b6001600160a01b0391909116815260200190565b6001600160a01b0392831681529116602082015260400190565b6001600160a01b03929092168252602082015260400190565b901515815260200190565b600061018082526139f861018083018f613946565b8281036020840152613a0a818f613946565b90508c604084015260078c10613a2257613a22614432565b8b60608401528a6080840152613a3b60a084018b613933565b613a4860c084018a613940565b613a5560e0840189613940565b86610100840152613a6a610120840187613940565b828103610140840152613a7d8186613946565b9050828103610160840152613a928185613946565b9f9e505050505050505050505050505050565b6020808252600f908201526e1499585cdbdb881c995c5d5a5c9959608a1b604082015260600190565b6020808252601290820152710416d6f756e74206d757374206265203e20360741b604082015260600190565b6020808252601c908201527f4f6e6c7920617574686f726974792063616e2063616c6c207468697300000000604082015260600190565b6020808252600c908201526b139bdd081c995a9958dd195960a21b604082015260600190565b6020808252600f908201526e496e76616c6964206164647265737360881b604082015260600190565b60208082526010908201526f105b1c9958591e48185c1c1c9bdd995960821b604082015260600190565b6020808252600d908201526c4e6f7420696e2072657669657760981b604082015260600190565b60208082526013908201527243616e6e6f7420626520617574686f7269747960681b604082015260600190565b60208082526015908201527414dd589b5a5d08195d9a59195b98d948199a5c9cdd605a1b604082015260600190565b6020808252600b908201526a4e6f742070656e64696e6760a81b604082015260600190565b6020808252600d908201526c092dcecc2d8d2c840d2dcc8caf609b1b604082015260600190565b602080825260159082015274092dcecc2d8d2c840caecd2c8cadcc6ca40d0c2e6d605b1b604082015260600190565b602080825260149082015273496e73756666696369656e742062616c616e636560601b604082015260600190565b6020808252601c908201527f496e73706563746f72206d75737420617070726f766520666972737400000000604082015260600190565b60208082526023908201527f436f6e74726163746f72206d757374206d61726b20636f6d706c6574652066696040820152621c9cdd60ea1b606082015260800190565b60208082526011908201527014d95b9908195e1858dd08185b5bdd5b9d607a1b604082015260600190565b60208082526011908201527014dd5c1c1b1a595c881c995c5d5a5c9959607a1b604082015260600190565b60208082526022908201527f43616e206f6e6c792064656c6574652070656e64696e67206d696c6573746f6e604082015261657360f01b606082015260800190565b60208082526010908201526f0436f7374206d757374206265203e20360841b604082015260600190565b6020808252600c908201526b139bdd08185c1c1c9bdd995960a21b604082015260600190565b60208082526011908201527024b73b30b634b21034b739b832b1ba37b960791b604082015260600190565b60208082526018908201527f417574686f726974792063616e6e6f7420696e73706563740000000000000000604082015260600190565b60208082526017908201527f4f6e6c792061737369676e656420696e73706563746f72000000000000000000604082015260600190565b6020808252601d908201527f4f6e6c7920636f6e74726163746f722063616e2063616c6c2074686973000000604082015260600190565b6020808252602c908201527f4d7573742062652050656e64696e67206f722052656a656374656420746f206d60408201526b61726b20636f6d706c65746560a01b606082015260800190565b6020808252600e908201526d088eae0d8d2c6c2e8ca40d0c2e6d60931b604082015260600190565b60208082526019908201527f436f6e74726163746f722063616e6e6f7420696e737065637400000000000000604082015260600190565b602080825260119082015270141c9bda9958dd0818dbdb5c1b195d1959607a1b604082015260600190565b602080825260159082015274125b9d9bda58d9481a185cda081c995c5d5a5c9959605a1b604082015260600190565b6020808252601c908201527f416c72656164792072657175657374656420636f6d706c6574696f6e00000000604082015260600190565b60208082526026908201527f416c6c206d696c6573746f6e6573206d7573742062652050616964206f722044604082015265195b195d195960d21b606082015260800190565b60208082526019908201527f50726f6a65637420616c726561647920636f6d706c6574656400000000000000604082015260600190565b60208082526010908201526f139bdd0818dbdb5c1b195d19481e595d60821b604082015260600190565b602080825260169082015275088eae0d8d2c6c2e8ca40d2dcecded2c6ca40d0c2e6d60531b604082015260600190565b60208082526014908201527311195cd8dc9a5c1d1a5bdb881c995c5d5a5c995960621b604082015260600190565b602080825260119082015270105b1c9958591e4818dbdb5c1b195d1959607a1b604082015260600190565b602080825260119082015270105b1c9958591e4818dbdb999a5c9b5959607a1b604082015260600190565b90815260200190565b9182526001600160a01b0316602082015260400190565b9283526001600160a01b03919091166020830152604082015260600190565b8381526001600160a01b038316602082015260606040820181905260009061420890830184613946565b95945050505050565b918252602082015260400190565b60008582528460208301526080604083015261423e6080830185613946565b905060018060a01b038316606083015295945050505050565b6000858252608060208301526142706080830186613946565b90506003841061428257614282614432565b60408201939093526060015292915050565b6000858252608060208301526142ad6080830186613946565b82810360408401526142bf8186613946565b91505082606083015295945050505050565b600087825260c060208301526142ea60c0830188613946565b82810360408401526142fc8188613946565b60608401969096525050608081019290925260a0909101529392505050565b6000848252836020830152606060408301526142086060830184613946565b600087825286602083015260c0604083015261435960c0830187613946565b828103606084015261436b8187613946565b6080840195909552505060a00152949350505050565b9283526020830191909152604082015260600190565b600082198211156143aa576143aa61441c565b500190565b6000828210156143c1576143c161441c565b500390565b6002810460018216806143da57607f821691505b602082108114156143fb57634e487b7160e01b600052602260045260246000fd5b50919050565b60006000198214156144155761441561441c565b5060010190565b634e487b7160e01b600052601160045260246000fd5b634e487b7160e01b600052602160045260246000fd5b634e487b7160e01b600052604160045260246000fd5b6001600160a01b038116811461447357600080fd5b5056fea2646970667358221220c4bc3fa34943d0ca6bc8b59e97ec7955359a43bb89607cd432a0271cd885618064736f6c63430008000033a26469706673582212206db36a32b7e8a4b515fddb1fb854cfa6b01a4f289132603aab247c8aa0f0fd7964736f6c63430008000033",
  "immutableReferences": {},
  "source": "// SPDX-License-Identifier: MIT\r\npragma solidity ^0.8.0;\r\n\r\nimport \"./Project.sol\";\r\n\r\ncontract ProjectFactory {\r\n\r\n    address public authority;\r\n\r\n    struct ProjectInfo {\r\n        address contractAddress;\r\n        string name;\r\n        address contractor;\r\n        uint256 initialBudget;\r\n    }\r\n\r\n    ProjectInfo[] public projects;\r\n\r\n    event ProjectCreated(uint256 index, address contractAddress, string name, address contractor, uint256 budget);\r\n\r\n    modifier onlyAuthority() {\r\n        require(msg.sender == authority, \"Only authority can call this\");\r\n        _;\r\n    }\r\n\r\n    constructor() {\r\n        authority = msg.sender;\r\n    }\r\n\r\n    // Authority creates project AND sends initial budget in same transaction\r\n    function createProject(\r\n        string memory _name,\r\n        address payable _contractor\r\n    ) external payable onlyAuthority {\r\n        require(_contractor != address(0), \"Invalid contractor\");\r\n        require(msg.value > 0, \"Initial budget required\");\r\n        Project newProject = new Project{value: msg.value}(msg.sender, _contractor);\r\n        projects.push(ProjectInfo({\r\n            contractAddress: address(newProject),\r\n            name: _name,\r\n            contractor: _contractor,\r\n            initialBudget: msg.value\r\n        }));\r\n        emit ProjectCreated(projects.length - 1, address(newProject), _name, _contractor, msg.value);\r\n    }\r\n\r\n    function getProjectCount() external view returns (uint256) {\r\n        return projects.length;\r\n    }\r\n\r\n    function getProject(uint256 _index) external view returns (\r\n        address contractAddress,\r\n        string memory name,\r\n        address contractor,\r\n        uint256 initialBudget\r\n    ) {\r\n        require(_index < projects.length, \"Invalid index\");\r\n        ProjectInfo storage p = projects[_index];\r\n        return (p.contractAddress, p.name, p.contractor, p.initialBudget);\r\n    }\r\n}",
  "sourcePath": "C:\\Users\\Hrishikesh Patil\\Documents\\MiniProject\\procurement-dapp\\blockchain\\contracts\\ProjectFactory.sol",
  "compiler": {
    "name": "solc",
    "version": "0.8.0+commit.c7dfd78e.Emscripten.clang"
  },
  "schemaVersion": "3.4.16",
  "updatedAt": "2026-03-21T07:12:57.100Z",
  "networkType": "ethereum",
  "devdoc": {
    "kind": "dev",
    "methods": {},
    "version": 1
  },
  "userdoc": {
    "kind": "user",
    "methods": {},
    "version": 1
  }
}